{
  "contractName": "LibPart",
  "abi": [
    {
      "inputs": [],
      "name": "TYPE_HASH",
      "outputs": [
        {
          "internalType": "bytes32",
          "name": "",
          "type": "bytes32"
        }
      ],
      "stateMutability": "view",
      "type": "function"
    }
  ],
  "bytecode": "0x60a6610038600b82828239805160001a607314602b57634e487b7160e01b600052600060045260246000fd5b30600052607381538281f3fe730000000000000000000000000000000000000000301460806040526004361060335760003560e01c806364d4c819146038575b600080fd5b605e7f397e04204c1e1a60ee8724b71f8244e10ab5f2e9009854d80f602bda21b59ebb81565b60405190815260200160405180910390f3fea2646970667358221220bd0f97d7a293fdb9dd78b244d4db970f0bead43248e723885c5144e030026fae64736f6c634300080b0033",
  "immutableReferences": {},
  "source": "// SPDX-License-Identifier: MIT\r\npragma solidity >=0.7.0 <0.9.0;\r\n\r\nimport \"@openzeppelin/contracts/utils/Strings.sol\";\r\nimport \"@openzeppelin/contracts-upgradeable/token/ERC1155/ERC1155Upgradeable.sol\";\r\nimport \"@openzeppelin/contracts-upgradeable/access/OwnableUpgradeable.sol\";\r\nimport \"@openzeppelin/contracts-upgradeable/proxy/utils/Initializable.sol\";\r\nimport \"@openzeppelin/contracts-upgradeable/proxy/utils/UUPSUpgradeable.sol\";\r\n\r\nlibrary LibPart {\r\n    bytes32 public constant TYPE_HASH =\r\n        keccak256(\"Part(address account,uint96 value)\");\r\n\r\n    struct Part {\r\n        address payable account;\r\n        uint96 value;\r\n    }\r\n\r\n    function hash(Part memory part) internal pure returns (bytes32) {\r\n        return keccak256(abi.encode(TYPE_HASH, part.account, part.value));\r\n    }\r\n}\r\n\r\nlibrary LibRoyaltiesV2 {\r\n    /*\r\n     * bytes4(keccak256('getRaribleV2Royalties(uint256)')) == 0xcad96cca\r\n     */\r\n    bytes4 constant _INTERFACE_ID_ROYALTIES = 0xcad96cca;\r\n}\r\n\r\nabstract contract AbstractRoyalties {\r\n    mapping(uint256 => LibPart.Part[]) internal royalties;\r\n\r\n    function _saveRoyalties(uint256 id, LibPart.Part[] memory _royalties)\r\n        internal\r\n    {\r\n        uint256 totalValue;\r\n        for (uint256 i = 0; i < _royalties.length; i++) {\r\n            require(\r\n                _royalties[i].account != address(0x0),\r\n                \"Recipient should be present\"\r\n            );\r\n            require(\r\n                _royalties[i].value != 0,\r\n                \"Royalty value should be positive\"\r\n            );\r\n            totalValue += _royalties[i].value;\r\n            royalties[id].push(_royalties[i]);\r\n        }\r\n        require(totalValue < 10000, \"Royalty total value should be < 10000\");\r\n        _onRoyaltiesSet(id, _royalties);\r\n    }\r\n\r\n    function _updateAccount(\r\n        uint256 _id,\r\n        address _from,\r\n        address _to\r\n    ) internal {\r\n        uint256 length = royalties[_id].length;\r\n        for (uint256 i = 0; i < length; i++) {\r\n            if (royalties[_id][i].account == _from) {\r\n                royalties[_id][i].account = payable(address(uint160(_to)));\r\n            }\r\n        }\r\n    }\r\n\r\n    function _onRoyaltiesSet(uint256 id, LibPart.Part[] memory _royalties)\r\n        internal\r\n        virtual;\r\n}\r\n\r\ninterface RoyaltiesV2 {\r\n    event RoyaltiesSet(uint256 tokenId, LibPart.Part[] royalties);\r\n\r\n    function getRaribleV2Royalties(uint256 id)\r\n        external\r\n        view\r\n        returns (LibPart.Part[] memory);\r\n}\r\n\r\ncontract RoyaltiesV2Impl is AbstractRoyalties, RoyaltiesV2 {\r\n    function getRaribleV2Royalties(uint256 id)\r\n        external\r\n        view\r\n        override\r\n        returns (LibPart.Part[] memory)\r\n    {\r\n        // return royalties[id];\r\n        LibPart.Part[] memory _royalties = new LibPart.Part[](1);\r\n        _royalties[0].value = 3000;\r\n        _royalties[0].account = payable(\r\n            address(uint160(0xdF6352DFaBACb00164AdA9e387202DC2e0D17c91))\r\n        );\r\n        return _royalties;\r\n    }\r\n\r\n    function _onRoyaltiesSet(uint256 id, LibPart.Part[] memory _royalties)\r\n        internal\r\n        override\r\n    {\r\n        emit RoyaltiesSet(id, _royalties);\r\n    }\r\n}\r\n\r\ncontract SecondContractV2 is\r\n    RoyaltiesV2Impl,\r\n    Initializable,\r\n    OwnableUpgradeable,\r\n    ERC1155Upgradeable,\r\n    UUPSUpgradeable\r\n{\r\n    string baseURI;\r\n    string public baseExtension;\r\n    uint256 public cost;\r\n    uint256 public maxSupply;\r\n    uint256 public maxMintAmount;\r\n    bool public paused;\r\n    bool public revealed;\r\n    string public notRevealedUri;\r\n    uint256 _totalSupply;\r\n\r\n    uint256 public nftPerAddressLimit;\r\n    bool public onlyWhitelisted;\r\n    address[] public whitelistedAddresses;\r\n    mapping(address => uint256) public addressMintedBalance;\r\n\r\n    mapping(uint256 => string) public tokenURI;\r\n\r\n    function initialize() public initializer {\r\n        __ERC1155_init(\r\n            \"ipfs://QmZAPmKBB4Fp1R91d2KQaCz6nZbAHnS4x5wSg4596uh5FK/{id}.json\"\r\n        );\r\n        __Ownable_init();\r\n        __UUPSUpgradeable_init();\r\n\r\n        baseURI = \"ipfs://QmYhNpFZ3cv9SyyDpE5up1Cb4tztF5AWTAxipJiUvEpcZo/\";\r\n        baseExtension = \".json\";\r\n        cost = 0.00 ether;\r\n        maxSupply = 334;\r\n        maxMintAmount = 1;\r\n        paused = true;\r\n        revealed = false;\r\n        notRevealedUri = \"ipfs://QmddF2G4pjXbHFRqkavT3bSQiMJ4wctxbUvPtwMEJ4hYJz/reveal.json\";\r\n        _totalSupply = 0;\r\n\r\n        nftPerAddressLimit = 1;\r\n        onlyWhitelisted = true;\r\n    }\r\n\r\n    function _authorizeUpgrade(address newImplementation)\r\n        internal\r\n        override\r\n        onlyOwner\r\n    {}\r\n\r\n    // internal\r\n    function _baseURI() internal view virtual returns (string memory) {\r\n        return baseURI;\r\n    }\r\n\r\n    function totalSupply() internal view virtual returns (uint256) {\r\n        return _totalSupply;\r\n    }\r\n\r\n    function name() public pure returns (string memory) {\r\n        return \"Sweet Clash test 7\";\r\n    }\r\n\r\n    function updateTotalSupply() internal virtual {\r\n        _totalSupply = _totalSupply + 1;\r\n    }\r\n\r\n    function setNotRevealedURI(string memory _notRevealedURI) public onlyOwner {\r\n        notRevealedUri = _notRevealedURI;\r\n    }\r\n\r\n    //only owner\r\n    function reveal() public onlyOwner {\r\n        revealed = true;\r\n    }\r\n\r\n    function mint(uint256 _mintAmount) public payable {\r\n        require(!paused, \"paused\");\r\n        require(_mintAmount > 0, \"_mintAmount > 0\");\r\n        require(_mintAmount <= maxMintAmount, \"_mintAmount <= maxMintAmount\");\r\n        require(\r\n            totalSupply() + _mintAmount <= maxSupply,\r\n            \"totalSupply() + _mintAmount <= maxSupply\"\r\n        );\r\n        //require(msg.sender != owner(),\"msg.sender != owner()\");\r\n        if (onlyWhitelisted == true) {\r\n            require(isWhitelisted(msg.sender), \"user is not whitelisted\");\r\n            uint256 ownerMintedCount = addressMintedBalance[msg.sender];\r\n            require(\r\n                ownerMintedCount + _mintAmount <= nftPerAddressLimit,\r\n                \"max NFT per address exceeded\"\r\n            );\r\n        }\r\n        require(\r\n            msg.value >= cost * _mintAmount,\r\n            \"msg.value >= cost * _mintAmount\"\r\n        );\r\n\r\n        for (uint256 i = 1; i <= 2; i++) {\r\n            addressMintedBalance[msg.sender]++;\r\n            _mint(msg.sender, totalSupply() + 1, 1, \"\");\r\n            updateTotalSupply();\r\n        }\r\n    }\r\n\r\n    function isWhitelisted(address _user) public view returns (bool) {\r\n        for (uint256 i = 0; i < whitelistedAddresses.length; i++) {\r\n            if (whitelistedAddresses[i] == _user) {\r\n                return true;\r\n            }\r\n        }\r\n        return false;\r\n    }\r\n\r\n    function setNftPerAddressLimit(uint256 _limit) public onlyOwner {\r\n        nftPerAddressLimit = _limit;\r\n    }\r\n\r\n    function setOnlyWhitelisted(bool _state) public onlyOwner {\r\n        onlyWhitelisted = _state;\r\n    }\r\n\r\n    function whitelistUsers(address[] calldata _users) public onlyOwner {\r\n        delete whitelistedAddresses;\r\n        whitelistedAddresses = _users;\r\n    }\r\n\r\n    function setmaxMintAmount(uint256 _newmaxMintAmount) public onlyOwner {\r\n        maxMintAmount = _newmaxMintAmount;\r\n    }\r\n\r\n    /*function mintBatch(address _to, uint[] memory _ids, uint[] memory _amounts) external onlyOwner {\r\n    _mintBatch(_to, _ids, _amounts, \"\");\r\n  }\r\n \r\n  function burn(uint _id, uint _amount) external {\r\n    _burn(msg.sender, _id, _amount);\r\n  }\r\n \r\n  function burnBatch(uint[] memory _ids, uint[] memory _amounts) external {\r\n    _burnBatch(msg.sender, _ids, _amounts);\r\n  }\r\n \r\n  function burnForMint(address _from, uint[] memory _burnIds, uint[] memory _burnAmounts, uint[] memory _mintIds, uint[] memory _mintAmounts) external onlyOwner {\r\n    _burnBatch(_from, _burnIds, _burnAmounts);\r\n    _mintBatch(_from, _mintIds, _mintAmounts, \"\");\r\n  }\r\n*/\r\n    function setPaused(bool _state) public onlyOwner {\r\n        paused = _state;\r\n    }\r\n\r\n    function setBaseURI(string memory _newBaseURI) public onlyOwner {\r\n        baseURI = _newBaseURI;\r\n    }\r\n\r\n    function setBaseExtension(string memory _newBaseExtension)\r\n        public\r\n        onlyOwner\r\n    {\r\n        baseExtension = _newBaseExtension;\r\n    }\r\n\r\n    function uri(uint256 _tokenId)\r\n        public\r\n        view\r\n        override\r\n        returns (string memory)\r\n    {\r\n        if (revealed == false) {\r\n            return notRevealedUri;\r\n        }\r\n        string memory currentBaseURI = _baseURI();\r\n        return\r\n            string(\r\n                abi.encodePacked(\r\n                    currentBaseURI,\r\n                    Strings.toString(_tokenId),\r\n                    baseExtension\r\n                )\r\n            );\r\n    }\r\n\r\n    function setRoyalties(\r\n        uint256 _tokenId,\r\n        address payable _royaltiesReceipientAddress,\r\n        uint96 _percentageBasisPoints\r\n    ) public onlyOwner {\r\n        LibPart.Part[] memory _royalties = new LibPart.Part[](1);\r\n        _royalties[0].value = _percentageBasisPoints;\r\n        _royalties[0].account = _royaltiesReceipientAddress;\r\n        _saveRoyalties(_tokenId, _royalties);\r\n    }\r\n\r\n    function supportsInterface(bytes4 interfaceId)\r\n        public\r\n        view\r\n        virtual\r\n        override(ERC1155Upgradeable)\r\n        returns (bool)\r\n    {\r\n        if (interfaceId == LibRoyaltiesV2._INTERFACE_ID_ROYALTIES) {\r\n            return true;\r\n        }\r\n        return super.supportsInterface(interfaceId);\r\n    }\r\n}\r\n",
  "sourcePath": "C:\\Users\\DELL\\Desktop\\ethereum-boilerplate\\Truffle\\contracts\\ERC1155CustomUpgradeable\\SecondContractV2.sol",
  "compiler": {
    "name": "solc",
    "version": "0.8.11+commit.d7f03943.Emscripten.clang"
  },
  "schemaVersion": "3.4.4",
  "updatedAt": "2022-02-04T13:35:27.851Z",
  "devdoc": {
    "kind": "dev",
    "methods": {},
    "version": 1
  },
  "userdoc": {
    "kind": "user",
    "methods": {},
    "version": 1
  }
}