{
  "contractName": "SecondContractV2",
  "abi": [
    {
      "anonymous": false,
      "inputs": [
        {
          "indexed": false,
          "internalType": "address",
          "name": "previousAdmin",
          "type": "address"
        },
        {
          "indexed": false,
          "internalType": "address",
          "name": "newAdmin",
          "type": "address"
        }
      ],
      "name": "AdminChanged",
      "type": "event"
    },
    {
      "anonymous": false,
      "inputs": [
        {
          "indexed": true,
          "internalType": "address",
          "name": "account",
          "type": "address"
        },
        {
          "indexed": true,
          "internalType": "address",
          "name": "operator",
          "type": "address"
        },
        {
          "indexed": false,
          "internalType": "bool",
          "name": "approved",
          "type": "bool"
        }
      ],
      "name": "ApprovalForAll",
      "type": "event"
    },
    {
      "anonymous": false,
      "inputs": [
        {
          "indexed": true,
          "internalType": "address",
          "name": "beacon",
          "type": "address"
        }
      ],
      "name": "BeaconUpgraded",
      "type": "event"
    },
    {
      "anonymous": false,
      "inputs": [
        {
          "indexed": true,
          "internalType": "address",
          "name": "previousOwner",
          "type": "address"
        },
        {
          "indexed": true,
          "internalType": "address",
          "name": "newOwner",
          "type": "address"
        }
      ],
      "name": "OwnershipTransferred",
      "type": "event"
    },
    {
      "anonymous": false,
      "inputs": [
        {
          "indexed": false,
          "internalType": "uint256",
          "name": "tokenId",
          "type": "uint256"
        },
        {
          "components": [
            {
              "internalType": "address payable",
              "name": "account",
              "type": "address"
            },
            {
              "internalType": "uint96",
              "name": "value",
              "type": "uint96"
            }
          ],
          "indexed": false,
          "internalType": "struct LibPart.Part[]",
          "name": "royalties",
          "type": "tuple[]"
        }
      ],
      "name": "RoyaltiesSet",
      "type": "event"
    },
    {
      "anonymous": false,
      "inputs": [
        {
          "indexed": true,
          "internalType": "address",
          "name": "operator",
          "type": "address"
        },
        {
          "indexed": true,
          "internalType": "address",
          "name": "from",
          "type": "address"
        },
        {
          "indexed": true,
          "internalType": "address",
          "name": "to",
          "type": "address"
        },
        {
          "indexed": false,
          "internalType": "uint256[]",
          "name": "ids",
          "type": "uint256[]"
        },
        {
          "indexed": false,
          "internalType": "uint256[]",
          "name": "values",
          "type": "uint256[]"
        }
      ],
      "name": "TransferBatch",
      "type": "event"
    },
    {
      "anonymous": false,
      "inputs": [
        {
          "indexed": true,
          "internalType": "address",
          "name": "operator",
          "type": "address"
        },
        {
          "indexed": true,
          "internalType": "address",
          "name": "from",
          "type": "address"
        },
        {
          "indexed": true,
          "internalType": "address",
          "name": "to",
          "type": "address"
        },
        {
          "indexed": false,
          "internalType": "uint256",
          "name": "id",
          "type": "uint256"
        },
        {
          "indexed": false,
          "internalType": "uint256",
          "name": "value",
          "type": "uint256"
        }
      ],
      "name": "TransferSingle",
      "type": "event"
    },
    {
      "anonymous": false,
      "inputs": [
        {
          "indexed": false,
          "internalType": "string",
          "name": "value",
          "type": "string"
        },
        {
          "indexed": true,
          "internalType": "uint256",
          "name": "id",
          "type": "uint256"
        }
      ],
      "name": "URI",
      "type": "event"
    },
    {
      "anonymous": false,
      "inputs": [
        {
          "indexed": true,
          "internalType": "address",
          "name": "implementation",
          "type": "address"
        }
      ],
      "name": "Upgraded",
      "type": "event"
    },
    {
      "inputs": [
        {
          "internalType": "address",
          "name": "",
          "type": "address"
        }
      ],
      "name": "addressMintedBalance",
      "outputs": [
        {
          "internalType": "uint256",
          "name": "",
          "type": "uint256"
        }
      ],
      "stateMutability": "view",
      "type": "function"
    },
    {
      "inputs": [
        {
          "internalType": "address",
          "name": "account",
          "type": "address"
        },
        {
          "internalType": "uint256",
          "name": "id",
          "type": "uint256"
        }
      ],
      "name": "balanceOf",
      "outputs": [
        {
          "internalType": "uint256",
          "name": "",
          "type": "uint256"
        }
      ],
      "stateMutability": "view",
      "type": "function"
    },
    {
      "inputs": [
        {
          "internalType": "address[]",
          "name": "accounts",
          "type": "address[]"
        },
        {
          "internalType": "uint256[]",
          "name": "ids",
          "type": "uint256[]"
        }
      ],
      "name": "balanceOfBatch",
      "outputs": [
        {
          "internalType": "uint256[]",
          "name": "",
          "type": "uint256[]"
        }
      ],
      "stateMutability": "view",
      "type": "function"
    },
    {
      "inputs": [],
      "name": "baseExtension",
      "outputs": [
        {
          "internalType": "string",
          "name": "",
          "type": "string"
        }
      ],
      "stateMutability": "view",
      "type": "function"
    },
    {
      "inputs": [],
      "name": "cost",
      "outputs": [
        {
          "internalType": "uint256",
          "name": "",
          "type": "uint256"
        }
      ],
      "stateMutability": "view",
      "type": "function"
    },
    {
      "inputs": [
        {
          "internalType": "uint256",
          "name": "id",
          "type": "uint256"
        }
      ],
      "name": "getRaribleV2Royalties",
      "outputs": [
        {
          "components": [
            {
              "internalType": "address payable",
              "name": "account",
              "type": "address"
            },
            {
              "internalType": "uint96",
              "name": "value",
              "type": "uint96"
            }
          ],
          "internalType": "struct LibPart.Part[]",
          "name": "",
          "type": "tuple[]"
        }
      ],
      "stateMutability": "view",
      "type": "function"
    },
    {
      "inputs": [
        {
          "internalType": "address",
          "name": "account",
          "type": "address"
        },
        {
          "internalType": "address",
          "name": "operator",
          "type": "address"
        }
      ],
      "name": "isApprovedForAll",
      "outputs": [
        {
          "internalType": "bool",
          "name": "",
          "type": "bool"
        }
      ],
      "stateMutability": "view",
      "type": "function"
    },
    {
      "inputs": [],
      "name": "maxMintAmount",
      "outputs": [
        {
          "internalType": "uint256",
          "name": "",
          "type": "uint256"
        }
      ],
      "stateMutability": "view",
      "type": "function"
    },
    {
      "inputs": [],
      "name": "maxSupply",
      "outputs": [
        {
          "internalType": "uint256",
          "name": "",
          "type": "uint256"
        }
      ],
      "stateMutability": "view",
      "type": "function"
    },
    {
      "inputs": [],
      "name": "nftPerAddressLimit",
      "outputs": [
        {
          "internalType": "uint256",
          "name": "",
          "type": "uint256"
        }
      ],
      "stateMutability": "view",
      "type": "function"
    },
    {
      "inputs": [],
      "name": "notRevealedUri",
      "outputs": [
        {
          "internalType": "string",
          "name": "",
          "type": "string"
        }
      ],
      "stateMutability": "view",
      "type": "function"
    },
    {
      "inputs": [],
      "name": "onlyWhitelisted",
      "outputs": [
        {
          "internalType": "bool",
          "name": "",
          "type": "bool"
        }
      ],
      "stateMutability": "view",
      "type": "function"
    },
    {
      "inputs": [],
      "name": "owner",
      "outputs": [
        {
          "internalType": "address",
          "name": "",
          "type": "address"
        }
      ],
      "stateMutability": "view",
      "type": "function"
    },
    {
      "inputs": [],
      "name": "paused",
      "outputs": [
        {
          "internalType": "bool",
          "name": "",
          "type": "bool"
        }
      ],
      "stateMutability": "view",
      "type": "function"
    },
    {
      "inputs": [],
      "name": "renounceOwnership",
      "outputs": [],
      "stateMutability": "nonpayable",
      "type": "function"
    },
    {
      "inputs": [],
      "name": "revealed",
      "outputs": [
        {
          "internalType": "bool",
          "name": "",
          "type": "bool"
        }
      ],
      "stateMutability": "view",
      "type": "function"
    },
    {
      "inputs": [
        {
          "internalType": "address",
          "name": "from",
          "type": "address"
        },
        {
          "internalType": "address",
          "name": "to",
          "type": "address"
        },
        {
          "internalType": "uint256[]",
          "name": "ids",
          "type": "uint256[]"
        },
        {
          "internalType": "uint256[]",
          "name": "amounts",
          "type": "uint256[]"
        },
        {
          "internalType": "bytes",
          "name": "data",
          "type": "bytes"
        }
      ],
      "name": "safeBatchTransferFrom",
      "outputs": [],
      "stateMutability": "nonpayable",
      "type": "function"
    },
    {
      "inputs": [
        {
          "internalType": "address",
          "name": "from",
          "type": "address"
        },
        {
          "internalType": "address",
          "name": "to",
          "type": "address"
        },
        {
          "internalType": "uint256",
          "name": "id",
          "type": "uint256"
        },
        {
          "internalType": "uint256",
          "name": "amount",
          "type": "uint256"
        },
        {
          "internalType": "bytes",
          "name": "data",
          "type": "bytes"
        }
      ],
      "name": "safeTransferFrom",
      "outputs": [],
      "stateMutability": "nonpayable",
      "type": "function"
    },
    {
      "inputs": [
        {
          "internalType": "address",
          "name": "operator",
          "type": "address"
        },
        {
          "internalType": "bool",
          "name": "approved",
          "type": "bool"
        }
      ],
      "name": "setApprovalForAll",
      "outputs": [],
      "stateMutability": "nonpayable",
      "type": "function"
    },
    {
      "inputs": [
        {
          "internalType": "uint256",
          "name": "",
          "type": "uint256"
        }
      ],
      "name": "tokenURI",
      "outputs": [
        {
          "internalType": "string",
          "name": "",
          "type": "string"
        }
      ],
      "stateMutability": "view",
      "type": "function"
    },
    {
      "inputs": [
        {
          "internalType": "address",
          "name": "newOwner",
          "type": "address"
        }
      ],
      "name": "transferOwnership",
      "outputs": [],
      "stateMutability": "nonpayable",
      "type": "function"
    },
    {
      "inputs": [
        {
          "internalType": "address",
          "name": "newImplementation",
          "type": "address"
        }
      ],
      "name": "upgradeTo",
      "outputs": [],
      "stateMutability": "nonpayable",
      "type": "function"
    },
    {
      "inputs": [
        {
          "internalType": "address",
          "name": "newImplementation",
          "type": "address"
        },
        {
          "internalType": "bytes",
          "name": "data",
          "type": "bytes"
        }
      ],
      "name": "upgradeToAndCall",
      "outputs": [],
      "stateMutability": "payable",
      "type": "function"
    },
    {
      "inputs": [
        {
          "internalType": "uint256",
          "name": "",
          "type": "uint256"
        }
      ],
      "name": "whitelistedAddresses",
      "outputs": [
        {
          "internalType": "address",
          "name": "",
          "type": "address"
        }
      ],
      "stateMutability": "view",
      "type": "function"
    },
    {
      "inputs": [],
      "name": "initialize",
      "outputs": [],
      "stateMutability": "nonpayable",
      "type": "function"
    },
    {
      "inputs": [],
      "name": "name",
      "outputs": [
        {
          "internalType": "string",
          "name": "",
          "type": "string"
        }
      ],
      "stateMutability": "pure",
      "type": "function"
    },
    {
      "inputs": [
        {
          "internalType": "string",
          "name": "_notRevealedURI",
          "type": "string"
        }
      ],
      "name": "setNotRevealedURI",
      "outputs": [],
      "stateMutability": "nonpayable",
      "type": "function"
    },
    {
      "inputs": [],
      "name": "reveal",
      "outputs": [],
      "stateMutability": "nonpayable",
      "type": "function"
    },
    {
      "inputs": [
        {
          "internalType": "uint256",
          "name": "_mintAmount",
          "type": "uint256"
        }
      ],
      "name": "mint",
      "outputs": [],
      "stateMutability": "payable",
      "type": "function"
    },
    {
      "inputs": [
        {
          "internalType": "address",
          "name": "_user",
          "type": "address"
        }
      ],
      "name": "isWhitelisted",
      "outputs": [
        {
          "internalType": "bool",
          "name": "",
          "type": "bool"
        }
      ],
      "stateMutability": "view",
      "type": "function"
    },
    {
      "inputs": [
        {
          "internalType": "uint256",
          "name": "_limit",
          "type": "uint256"
        }
      ],
      "name": "setNftPerAddressLimit",
      "outputs": [],
      "stateMutability": "nonpayable",
      "type": "function"
    },
    {
      "inputs": [
        {
          "internalType": "bool",
          "name": "_state",
          "type": "bool"
        }
      ],
      "name": "setOnlyWhitelisted",
      "outputs": [],
      "stateMutability": "nonpayable",
      "type": "function"
    },
    {
      "inputs": [
        {
          "internalType": "address[]",
          "name": "_users",
          "type": "address[]"
        }
      ],
      "name": "whitelistUsers",
      "outputs": [],
      "stateMutability": "nonpayable",
      "type": "function"
    },
    {
      "inputs": [
        {
          "internalType": "uint256",
          "name": "_newmaxMintAmount",
          "type": "uint256"
        }
      ],
      "name": "setmaxMintAmount",
      "outputs": [],
      "stateMutability": "nonpayable",
      "type": "function"
    },
    {
      "inputs": [
        {
          "internalType": "bool",
          "name": "_state",
          "type": "bool"
        }
      ],
      "name": "setPaused",
      "outputs": [],
      "stateMutability": "nonpayable",
      "type": "function"
    },
    {
      "inputs": [
        {
          "internalType": "string",
          "name": "_newBaseURI",
          "type": "string"
        }
      ],
      "name": "setBaseURI",
      "outputs": [],
      "stateMutability": "nonpayable",
      "type": "function"
    },
    {
      "inputs": [
        {
          "internalType": "string",
          "name": "_newBaseExtension",
          "type": "string"
        }
      ],
      "name": "setBaseExtension",
      "outputs": [],
      "stateMutability": "nonpayable",
      "type": "function"
    },
    {
      "inputs": [
        {
          "internalType": "uint256",
          "name": "_tokenId",
          "type": "uint256"
        }
      ],
      "name": "uri",
      "outputs": [
        {
          "internalType": "string",
          "name": "",
          "type": "string"
        }
      ],
      "stateMutability": "view",
      "type": "function"
    },
    {
      "inputs": [
        {
          "internalType": "uint256",
          "name": "_tokenId",
          "type": "uint256"
        },
        {
          "internalType": "address payable",
          "name": "_royaltiesReceipientAddress",
          "type": "address"
        },
        {
          "internalType": "uint96",
          "name": "_percentageBasisPoints",
          "type": "uint96"
        }
      ],
      "name": "setRoyalties",
      "outputs": [],
      "stateMutability": "nonpayable",
      "type": "function"
    },
    {
      "inputs": [
        {
          "internalType": "bytes4",
          "name": "interfaceId",
          "type": "bytes4"
        }
      ],
      "name": "supportsInterface",
      "outputs": [
        {
          "internalType": "bool",
          "name": "",
          "type": "bool"
        }
      ],
      "stateMutability": "view",
      "type": "function"
    }
  ],
  "bytecode": "0x60a06040523060805234801561001457600080fd5b506080516136e761004560003960008181610b6c01528181610bac01528181610e090152610e4901526136e76000f3fe60806040526004361061023a5760003560e01c80637f00c7a61161012e578063c87b56dd116100ab578063e985e9c51161006f578063e985e9c5146106a3578063edec5f27146106ec578063f242432a1461070c578063f2c4ce1e1461072c578063f2fde38b1461074c57600080fd5b8063c87b56dd146105ff578063cad96cca1461061f578063d0eb26b01461064c578063d5abeb011461066c578063da3ef23f1461068357600080fd5b8063a22cb465116100f2578063a22cb4651461057e578063a475b5dd1461059e578063ba4e5c49146105b3578063ba7d2c76146105d3578063c6682862146105ea57600080fd5b80637f00c7a6146104e95780638129fc1c146105095780638da5cb5b1461051e5780639c70b51214610550578063a0712d681461056b57600080fd5b80632eb2c2d6116101bc5780634f1ef286116101805780634f1ef28614610466578063518302271461047957806355f804b3146104995780635c975abb146104b9578063715018a6146104d457600080fd5b80632eb2c2d6146103b95780633659cfe6146103d95780633af32abf146103f95780633c952764146104195780634e1273f41461043957600080fd5b806313faede61161020357806313faede61461031b578063143094db1461033257806316c38b3c1461035457806318cae26914610374578063239c70ae146103a257600080fd5b8062fdd58e1461023f57806301ffc9a71461027257806306fdde03146102a2578063081c8c44146102e65780630e89341c146102fb575b600080fd5b34801561024b57600080fd5b5061025f61025a36600461297b565b61076c565b6040519081526020015b60405180910390f35b34801561027e57600080fd5b5061029261028d3660046129bd565b610805565b6040519015158152602001610269565b3480156102ae57600080fd5b50604080518082019091526012815271537765657420436c6173682074657374203760701b60208201525b6040516102699190612a32565b3480156102f257600080fd5b506102d9610837565b34801561030757600080fd5b506102d9610316366004612a45565b6108c6565b34801561032757600080fd5b5061025f6101305481565b34801561033e57600080fd5b5061035261034d366004612a5e565b6109ae565b005b34801561036057600080fd5b5061035261036f366004612ac1565b610a8c565b34801561038057600080fd5b5061025f61038f366004612adc565b6101396020526000908152604090205481565b3480156103ae57600080fd5b5061025f6101325481565b3480156103c557600080fd5b506103526103d4366004612c4f565b610aca565b3480156103e557600080fd5b506103526103f4366004612adc565b610b61565b34801561040557600080fd5b50610292610414366004612adc565b610c2a565b34801561042557600080fd5b50610352610434366004612ac1565b610c96565b34801561044557600080fd5b50610459610454366004612cfd565b610cd4565b6040516102699190612e05565b610352610474366004612e18565b610dfe565b34801561048557600080fd5b506101335461029290610100900460ff1681565b3480156104a557600080fd5b506103526104b4366004612e5e565b610eb8565b3480156104c557600080fd5b50610133546102929060ff1681565b3480156104e057600080fd5b50610352610ef6565b3480156104f557600080fd5b50610352610504366004612a45565b610f2c565b34801561051557600080fd5b50610352610f5c565b34801561052a57600080fd5b506034546001600160a01b03165b6040516001600160a01b039091168152602001610269565b34801561055c57600080fd5b50610137546102929060ff1681565b610352610579366004612a45565b611110565b34801561058a57600080fd5b50610352610599366004612ea7565b611403565b3480156105aa57600080fd5b5061035261140e565b3480156105bf57600080fd5b506105386105ce366004612a45565b61144a565b3480156105df57600080fd5b5061025f6101365481565b3480156105f657600080fd5b506102d9611475565b34801561060b57600080fd5b506102d961061a366004612a45565b611483565b34801561062b57600080fd5b5061063f61063a366004612a45565b61149d565b6040516102699190612f29565b34801561065857600080fd5b50610352610667366004612a45565b611561565b34801561067857600080fd5b5061025f6101315481565b34801561068f57600080fd5b5061035261069e366004612e5e565b611591565b3480156106af57600080fd5b506102926106be366004612f3c565b6001600160a01b03918216600090815260996020908152604080832093909416825291909152205460ff1690565b3480156106f857600080fd5b50610352610707366004612f75565b6115cf565b34801561071857600080fd5b50610352610727366004612fea565b611618565b34801561073857600080fd5b50610352610747366004612e5e565b61169f565b34801561075857600080fd5b50610352610767366004612adc565b6116dd565b60006001600160a01b0383166107dd5760405162461bcd60e51b815260206004820152602b60248201527f455243313135353a2062616c616e636520717565727920666f7220746865207a60448201526a65726f206164647265737360a81b60648201526084015b60405180910390fd5b5060009081526098602090815260408083206001600160a01b03949094168352929052205490565b60006001600160e01b0319821663656cb66560e11b141561082857506001919050565b61083182611775565b92915050565b610134805461084590613053565b80601f016020809104026020016040519081016040528092919081815260200182805461087190613053565b80156108be5780601f10610893576101008083540402835291602001916108be565b820191906000526020600020905b8154815290600101906020018083116108a157829003601f168201915b505050505081565b61013354606090610100900460ff1661096c5761013480546108e790613053565b80601f016020809104026020016040519081016040528092919081815260200182805461091390613053565b80156109605780601f1061093557610100808354040283529160200191610960565b820191906000526020600020905b81548152906001019060200180831161094357829003601f168201915b50505050509050919050565b60006109766117c5565b90508061098284611858565b61012f6040516020016109979392919061308e565b604051602081830303815290604052915050919050565b6034546001600160a01b031633146109d85760405162461bcd60e51b81526004016107d490613152565b604080516001808252818301909252600091816020015b60408051808201909152600080825260208201528152602001906001900390816109ef5790505090508181600081518110610a2c57610a2c613187565b6020026020010151602001906001600160601b031690816001600160601b0316815250508281600081518110610a6457610a64613187565b60209081029190910101516001600160a01b039091169052610a86848261195e565b50505050565b6034546001600160a01b03163314610ab65760405162461bcd60e51b81526004016107d490613152565b610133805460ff1916911515919091179055565b6001600160a01b038516331480610ae65750610ae685336106be565b610b4d5760405162461bcd60e51b815260206004820152603260248201527f455243313135353a207472616e736665722063616c6c6572206973206e6f74206044820152711bdddb995c881b9bdc88185c1c1c9bdd995960721b60648201526084016107d4565b610b5a8585858585611b78565b5050505050565b306001600160a01b037f0000000000000000000000000000000000000000000000000000000000000000161415610baa5760405162461bcd60e51b81526004016107d49061319d565b7f00000000000000000000000000000000000000000000000000000000000000006001600160a01b0316610bdc611d58565b6001600160a01b031614610c025760405162461bcd60e51b81526004016107d4906131e9565b610c0b81611d86565b60408051600080825260208201909252610c2791839190611db0565b50565b6000805b61013854811015610c8d57826001600160a01b03166101388281548110610c5757610c57613187565b6000918252602090912001546001600160a01b03161415610c7b5750600192915050565b80610c858161324b565b915050610c2e565b50600092915050565b6034546001600160a01b03163314610cc05760405162461bcd60e51b81526004016107d490613152565b610137805460ff1916911515919091179055565b60608151835114610d395760405162461bcd60e51b815260206004820152602960248201527f455243313135353a206163636f756e747320616e6420696473206c656e677468604482015268040dad2e6dac2e8c6d60bb1b60648201526084016107d4565b6000835167ffffffffffffffff811115610d5557610d55612af9565b604051908082528060200260200182016040528015610d7e578160200160208202803683370190505b50905060005b8451811015610df657610dc9858281518110610da257610da2613187565b6020026020010151858381518110610dbc57610dbc613187565b602002602001015161076c565b828281518110610ddb57610ddb613187565b6020908102919091010152610def8161324b565b9050610d84565b509392505050565b306001600160a01b037f0000000000000000000000000000000000000000000000000000000000000000161415610e475760405162461bcd60e51b81526004016107d49061319d565b7f00000000000000000000000000000000000000000000000000000000000000006001600160a01b0316610e79611d58565b6001600160a01b031614610e9f5760405162461bcd60e51b81526004016107d4906131e9565b610ea882611d86565b610eb482826001611db0565b5050565b6034546001600160a01b03163314610ee25760405162461bcd60e51b81526004016107d490613152565b8051610eb49061012e90602084019061285c565b6034546001600160a01b03163314610f205760405162461bcd60e51b81526004016107d490613152565b610f2a6000611ef4565b565b6034546001600160a01b03163314610f565760405162461bcd60e51b81526004016107d490613152565b61013255565b600154610100900460ff16610f775760015460ff1615610f7b565b303b155b610fde5760405162461bcd60e51b815260206004820152602e60248201527f496e697469616c697a61626c653a20636f6e747261637420697320616c72656160448201526d191e481a5b9a5d1a585b1a5e995960921b60648201526084016107d4565b600154610100900460ff16158015611000576001805461ffff19166101011790555b6110216040518060600160405280603f8152602001613673603f9139611f46565b611029611f86565b611031611fbd565b6040518060600160405280603681526020016135d560369139805161105f9161012e9160209091019061285c565b5060408051808201909152600580825264173539b7b760d91b602090920191825261108d9161012f9161285c565b5060006101305561014e610131556001610132819055610133805461ffff191690911790556040805160808101909152604180825261360b602083013980516110df916101349160209091019061285c565b506000610135556001610136819055610137805460ff191690911790558015610c27576001805461ff001916905550565b6101335460ff161561114d5760405162461bcd60e51b81526020600482015260066024820152651c185d5cd95960d21b60448201526064016107d4565b6000811161118f5760405162461bcd60e51b815260206004820152600f60248201526e05f6d696e74416d6f756e74203e203608c1b60448201526064016107d4565b610132548111156111e25760405162461bcd60e51b815260206004820152601c60248201527f5f6d696e74416d6f756e74203c3d206d61784d696e74416d6f756e740000000060448201526064016107d4565b61013154816111f16101355490565b6111fb9190613266565b111561125a5760405162461bcd60e51b815260206004820152602860248201527f746f74616c537570706c792829202b205f6d696e74416d6f756e74203c3d206d6044820152676178537570706c7960c01b60648201526084016107d4565b6101375460ff1615156001141561132f5761127433610c2a565b6112c05760405162461bcd60e51b815260206004820152601760248201527f75736572206973206e6f742077686974656c697374656400000000000000000060448201526064016107d4565b3360009081526101396020526040902054610136546112df8383613266565b111561132d5760405162461bcd60e51b815260206004820152601c60248201527f6d6178204e46542070657220616464726573732065786365656465640000000060448201526064016107d4565b505b806101305461133e919061327e565b34101561138d5760405162461bcd60e51b815260206004820152601f60248201527f6d73672e76616c7565203e3d20636f7374202a205f6d696e74416d6f756e740060448201526064016107d4565b60015b60028111610eb457336000908152610139602052604081208054916113b48361324b565b91905055506113e9336113c76101355490565b6113d2906001613266565b600160405180602001604052806000815250611ff4565b6113f1612100565b806113fb8161324b565b915050611390565b610eb4338383612115565b6034546001600160a01b031633146114385760405162461bcd60e51b81526004016107d490613152565b610133805461ff001916610100179055565b610138818154811061145b57600080fd5b6000918252602090912001546001600160a01b0316905081565b61012f805461084590613053565b61013a602052600090815260409020805461084590613053565b60408051600180825281830190925260609160009190816020015b60408051808201909152600080825260208201528152602001906001900390816114b8579050509050610bb8816000815181106114f7576114f7613187565b6020026020010151602001906001600160601b031690816001600160601b03168152505073df6352dfabacb00164ada9e387202dc2e0d17c918160008151811061154357611543613187565b60209081029190910101516001600160a01b03909116905292915050565b6034546001600160a01b0316331461158b5760405162461bcd60e51b81526004016107d490613152565b61013655565b6034546001600160a01b031633146115bb5760405162461bcd60e51b81526004016107d490613152565b8051610eb49061012f90602084019061285c565b6034546001600160a01b031633146115f95760405162461bcd60e51b81526004016107d490613152565b61160661013860006128e0565b61161361013883836128fe565b505050565b6001600160a01b038516331480611634575061163485336106be565b6116925760405162461bcd60e51b815260206004820152602960248201527f455243313135353a2063616c6c6572206973206e6f74206f776e6572206e6f7260448201526808185c1c1c9bdd995960ba1b60648201526084016107d4565b610b5a85858585856121f6565b6034546001600160a01b031633146116c95760405162461bcd60e51b81526004016107d490613152565b8051610eb49061013490602084019061285c565b6034546001600160a01b031633146117075760405162461bcd60e51b81526004016107d490613152565b6001600160a01b03811661176c5760405162461bcd60e51b815260206004820152602660248201527f4f776e61626c653a206e6577206f776e657220697320746865207a65726f206160448201526564647265737360d01b60648201526084016107d4565b610c2781611ef4565b60006001600160e01b03198216636cdb3d1360e11b14806117a657506001600160e01b031982166303a24d0760e21b145b8061083157506301ffc9a760e01b6001600160e01b0319831614610831565b606061012e80546117d590613053565b80601f016020809104026020016040519081016040528092919081815260200182805461180190613053565b801561184e5780601f106118235761010080835404028352916020019161184e565b820191906000526020600020905b81548152906001019060200180831161183157829003601f168201915b5050505050905090565b60608161187c5750506040805180820190915260018152600360fc1b602082015290565b8160005b81156118a657806118908161324b565b915061189f9050600a836132b3565b9150611880565b60008167ffffffffffffffff8111156118c1576118c1612af9565b6040519080825280601f01601f1916602001820160405280156118eb576020820181803683370190505b5090505b8415611956576119006001836132c7565b915061190d600a866132de565b611918906030613266565b60f81b81838151811061192d5761192d613187565b60200101906001600160f81b031916908160001a90535061194f600a866132b3565b94506118ef565b949350505050565b6000805b8251811015611b0e5760006001600160a01b031683828151811061198857611988613187565b6020026020010151600001516001600160a01b031614156119eb5760405162461bcd60e51b815260206004820152601b60248201527f526563697069656e742073686f756c642062652070726573656e74000000000060448201526064016107d4565b8281815181106119fd576119fd613187565b6020026020010151602001516001600160601b031660001415611a625760405162461bcd60e51b815260206004820181905260248201527f526f79616c74792076616c75652073686f756c6420626520706f73697469766560448201526064016107d4565b828181518110611a7457611a74613187565b6020026020010151602001516001600160601b031682611a949190613266565b9150600080858152602001908152602001600020838281518110611aba57611aba613187565b6020908102919091018101518254600181018455600093845292829020815191909201516001600160601b0316600160a01b026001600160a01b039091161791015580611b068161324b565b915050611962565b506127108110611b6e5760405162461bcd60e51b815260206004820152602560248201527f526f79616c747920746f74616c2076616c75652073686f756c64206265203c20604482015264031303030360dc1b60648201526084016107d4565b6116138383612317565b8151835114611bda5760405162461bcd60e51b815260206004820152602860248201527f455243313135353a2069647320616e6420616d6f756e7473206c656e677468206044820152670dad2e6dac2e8c6d60c31b60648201526084016107d4565b6001600160a01b038416611c005760405162461bcd60e51b81526004016107d4906132f2565b3360005b8451811015611cea576000858281518110611c2157611c21613187565b602002602001015190506000858381518110611c3f57611c3f613187565b60209081029190910181015160008481526098835260408082206001600160a01b038e168352909352919091205490915081811015611c905760405162461bcd60e51b81526004016107d490613337565b60008381526098602090815260408083206001600160a01b038e8116855292528083208585039055908b16825281208054849290611ccf908490613266565b9250508190555050505080611ce39061324b565b9050611c04565b50846001600160a01b0316866001600160a01b0316826001600160a01b03167f4a39dc06d4c0dbc64b70af90fd698a233a518aa5d07e595d983b8c0526c8f7fb8787604051611d3a929190613381565b60405180910390a4611d50818787878787612354565b505050505050565b7f360894a13ba1a3210667c828492db98dca3e2076cc3735a920a3ca505d382bbc546001600160a01b031690565b6034546001600160a01b03163314610c275760405162461bcd60e51b81526004016107d490613152565b6000611dba611d58565b9050611dc5846124b0565b600083511180611dd25750815b15611de357611de18484612555565b505b7f4910fdfa16fed3260ed0e7147f7cc6da11a60208b5b9406d12a635614ffd9143805460ff16610b5a57805460ff191660011781556040516001600160a01b0383166024820152611e6290869060440160408051601f198184030181529190526020810180516001600160e01b0316631b2ce7f360e11b179052612555565b50805460ff19168155611e73611d58565b6001600160a01b0316826001600160a01b031614611eeb5760405162461bcd60e51b815260206004820152602f60248201527f45524331393637557067726164653a207570677261646520627265616b73206660448201526e75727468657220757067726164657360881b60648201526084016107d4565b610b5a85612640565b603480546001600160a01b038381166001600160a01b0319831681179093556040519116919082907f8be0079c531659141344cd1fd0a4f28419497f9722a3daafe3b4186f6b6457e090600090a35050565b600154610100900460ff16611f6d5760405162461bcd60e51b81526004016107d4906133a6565b611f75612680565b611f7d612680565b610c27816126a7565b600154610100900460ff16611fad5760405162461bcd60e51b81526004016107d4906133a6565b611fb5612680565b610f2a6126d7565b600154610100900460ff16611fe45760405162461bcd60e51b81526004016107d4906133a6565b611fec612680565b610f2a612680565b6001600160a01b0384166120545760405162461bcd60e51b815260206004820152602160248201527f455243313135353a206d696e7420746f20746865207a65726f206164647265736044820152607360f81b60648201526084016107d4565b3361206e8160008761206588612707565b610b5a88612707565b60008481526098602090815260408083206001600160a01b0389168452909152812080548592906120a0908490613266565b909155505060408051858152602081018590526001600160a01b0380881692600092918516917fc3d58168c5ae7397731d063d5bbf3d657854427343f4c083240f7aacaa2d0f62910160405180910390a4610b5a81600087878787612752565b6101355461210f906001613266565b61013555565b816001600160a01b0316836001600160a01b031614156121895760405162461bcd60e51b815260206004820152602960248201527f455243313135353a2073657474696e6720617070726f76616c20737461747573604482015268103337b91039b2b63360b91b60648201526084016107d4565b6001600160a01b03838116600081815260996020908152604080832094871680845294825291829020805460ff191686151590811790915591519182527f17307eab39ab6107e8899845ad3d59bd9653f200f220920489ca2b5937696c31910160405180910390a3505050565b6001600160a01b03841661221c5760405162461bcd60e51b81526004016107d4906132f2565b3361222c81878761206588612707565b60008481526098602090815260408083206001600160a01b038a1684529091529020548381101561226f5760405162461bcd60e51b81526004016107d490613337565b60008581526098602090815260408083206001600160a01b038b81168552925280832087850390559088168252812080548692906122ae908490613266565b909155505060408051868152602081018690526001600160a01b03808916928a821692918616917fc3d58168c5ae7397731d063d5bbf3d657854427343f4c083240f7aacaa2d0f62910160405180910390a461230e828888888888612752565b50505050505050565b7f3fa96d7b6bcbfe71ef171666d84db3cf52fa2d1c8afdb1cc8e486177f208b7df82826040516123489291906133f1565b60405180910390a15050565b6001600160a01b0384163b15611d505760405163bc197c8160e01b81526001600160a01b0385169063bc197c8190612398908990899088908890889060040161340a565b6020604051808303816000875af19250505080156123d3575060408051601f3d908101601f191682019092526123d091810190613468565b60015b612480576123df613485565b806308c379a0141561241957506123f46134a1565b806123ff575061241b565b8060405162461bcd60e51b81526004016107d49190612a32565b505b60405162461bcd60e51b815260206004820152603460248201527f455243313135353a207472616e7366657220746f206e6f6e20455243313135356044820152732932b1b2b4bb32b91034b6b83632b6b2b73a32b960611b60648201526084016107d4565b6001600160e01b0319811663bc197c8160e01b1461230e5760405162461bcd60e51b81526004016107d49061352b565b803b6125145760405162461bcd60e51b815260206004820152602d60248201527f455243313936373a206e657720696d706c656d656e746174696f6e206973206e60448201526c1bdd08184818dbdb9d1c9858dd609a1b60648201526084016107d4565b7f360894a13ba1a3210667c828492db98dca3e2076cc3735a920a3ca505d382bbc80546001600160a01b0319166001600160a01b0392909216919091179055565b6060823b6125b45760405162461bcd60e51b815260206004820152602660248201527f416464726573733a2064656c65676174652063616c6c20746f206e6f6e2d636f6044820152651b9d1c9858dd60d21b60648201526084016107d4565b600080846001600160a01b0316846040516125cf9190613573565b600060405180830381855af49150503d806000811461260a576040519150601f19603f3d011682016040523d82523d6000602084013e61260f565b606091505b5091509150612637828260405180606001604052806027815260200161364c6027913961280d565b95945050505050565b612649816124b0565b6040516001600160a01b038216907fbc7cd75a20ee27fd9adebab32041f755214dbc6bffa90cc0225b39da2e5c2d3b90600090a250565b600154610100900460ff16610f2a5760405162461bcd60e51b81526004016107d4906133a6565b600154610100900460ff166126ce5760405162461bcd60e51b81526004016107d4906133a6565b610c278161284d565b600154610100900460ff166126fe5760405162461bcd60e51b81526004016107d4906133a6565b610f2a33611ef4565b6040805160018082528183019092526060916000919060208083019080368337019050509050828160008151811061274157612741613187565b602090810291909101015292915050565b6001600160a01b0384163b15611d505760405163f23a6e6160e01b81526001600160a01b0385169063f23a6e6190612796908990899088908890889060040161358f565b6020604051808303816000875af19250505080156127d1575060408051601f3d908101601f191682019092526127ce91810190613468565b60015b6127dd576123df613485565b6001600160e01b0319811663f23a6e6160e01b1461230e5760405162461bcd60e51b81526004016107d49061352b565b6060831561281c575081612846565b82511561282c5782518084602001fd5b8160405162461bcd60e51b81526004016107d49190612a32565b9392505050565b8051610eb490609a9060208401905b82805461286890613053565b90600052602060002090601f01602090048101928261288a57600085556128d0565b82601f106128a357805160ff19168380011785556128d0565b828001600101855582156128d0579182015b828111156128d05782518255916020019190600101906128b5565b506128dc929150612951565b5090565b5080546000825590600052602060002090810190610c279190612951565b8280548282559060005260206000209081019282156128d0579160200282015b828111156128d05781546001600160a01b0319166001600160a01b0384351617825560209092019160019091019061291e565b5b808211156128dc5760008155600101612952565b6001600160a01b0381168114610c2757600080fd5b6000806040838503121561298e57600080fd5b823561299981612966565b946020939093013593505050565b6001600160e01b031981168114610c2757600080fd5b6000602082840312156129cf57600080fd5b8135612846816129a7565b60005b838110156129f55781810151838201526020016129dd565b83811115610a865750506000910152565b60008151808452612a1e8160208601602086016129da565b601f01601f19169290920160200192915050565b6020815260006128466020830184612a06565b600060208284031215612a5757600080fd5b5035919050565b600080600060608486031215612a7357600080fd5b833592506020840135612a8581612966565b915060408401356001600160601b0381168114612aa157600080fd5b809150509250925092565b80358015158114612abc57600080fd5b919050565b600060208284031215612ad357600080fd5b61284682612aac565b600060208284031215612aee57600080fd5b813561284681612966565b634e487b7160e01b600052604160045260246000fd5b601f8201601f1916810167ffffffffffffffff81118282101715612b3557612b35612af9565b6040525050565b600067ffffffffffffffff821115612b5657612b56612af9565b5060051b60200190565b600082601f830112612b7157600080fd5b81356020612b7e82612b3c565b604051612b8b8282612b0f565b83815260059390931b8501820192828101915086841115612bab57600080fd5b8286015b84811015612bc65780358352918301918301612baf565b509695505050505050565b600067ffffffffffffffff831115612beb57612beb612af9565b604051612c02601f8501601f191660200182612b0f565b809150838152848484011115612c1757600080fd5b83836020830137600060208583010152509392505050565b600082601f830112612c4057600080fd5b61284683833560208501612bd1565b600080600080600060a08688031215612c6757600080fd5b8535612c7281612966565b94506020860135612c8281612966565b9350604086013567ffffffffffffffff80821115612c9f57600080fd5b612cab89838a01612b60565b94506060880135915080821115612cc157600080fd5b612ccd89838a01612b60565b93506080880135915080821115612ce357600080fd5b50612cf088828901612c2f565b9150509295509295909350565b60008060408385031215612d1057600080fd5b823567ffffffffffffffff80821115612d2857600080fd5b818501915085601f830112612d3c57600080fd5b81356020612d4982612b3c565b604051612d568282612b0f565b83815260059390931b8501820192828101915089841115612d7657600080fd5b948201945b83861015612d9d578535612d8e81612966565b82529482019490820190612d7b565b96505086013592505080821115612db357600080fd5b50612dc085828601612b60565b9150509250929050565b600081518084526020808501945080840160005b83811015612dfa57815187529582019590820190600101612dde565b509495945050505050565b6020815260006128466020830184612dca565b60008060408385031215612e2b57600080fd5b8235612e3681612966565b9150602083013567ffffffffffffffff811115612e5257600080fd5b612dc085828601612c2f565b600060208284031215612e7057600080fd5b813567ffffffffffffffff811115612e8757600080fd5b8201601f81018413612e9857600080fd5b61195684823560208401612bd1565b60008060408385031215612eba57600080fd5b8235612ec581612966565b9150612ed360208401612aac565b90509250929050565b600081518084526020808501945080840160005b83811015612dfa57815180516001600160a01b031688528301516001600160601b03168388015260409096019590820190600101612ef0565b6020815260006128466020830184612edc565b60008060408385031215612f4f57600080fd5b8235612f5a81612966565b91506020830135612f6a81612966565b809150509250929050565b60008060208385031215612f8857600080fd5b823567ffffffffffffffff80821115612fa057600080fd5b818501915085601f830112612fb457600080fd5b813581811115612fc357600080fd5b8660208260051b8501011115612fd857600080fd5b60209290920196919550909350505050565b600080600080600060a0868803121561300257600080fd5b853561300d81612966565b9450602086013561301d81612966565b93506040860135925060608601359150608086013567ffffffffffffffff81111561304757600080fd5b612cf088828901612c2f565b600181811c9082168061306757607f821691505b6020821081141561308857634e487b7160e01b600052602260045260246000fd5b50919050565b6000845160206130a18285838a016129da565b8551918401916130b48184848a016129da565b8554920191600090600181811c90808316806130d157607f831692505b8583108114156130ef57634e487b7160e01b85526022600452602485fd5b808015613103576001811461311457613141565b60ff19851688528388019550613141565b60008b81526020902060005b858110156131395781548a820152908401908801613120565b505083880195505b50939b9a5050505050505050505050565b6020808252818101527f4f776e61626c653a2063616c6c6572206973206e6f7420746865206f776e6572604082015260600190565b634e487b7160e01b600052603260045260246000fd5b6020808252602c908201527f46756e6374696f6e206d7573742062652063616c6c6564207468726f7567682060408201526b19195b1959d85d1958d85b1b60a21b606082015260800190565b6020808252602c908201527f46756e6374696f6e206d7573742062652063616c6c6564207468726f7567682060408201526b6163746976652070726f787960a01b606082015260800190565b634e487b7160e01b600052601160045260246000fd5b600060001982141561325f5761325f613235565b5060010190565b6000821982111561327957613279613235565b500190565b600081600019048311821515161561329857613298613235565b500290565b634e487b7160e01b600052601260045260246000fd5b6000826132c2576132c261329d565b500490565b6000828210156132d9576132d9613235565b500390565b6000826132ed576132ed61329d565b500690565b60208082526025908201527f455243313135353a207472616e7366657220746f20746865207a65726f206164604082015264647265737360d81b606082015260800190565b6020808252602a908201527f455243313135353a20696e73756666696369656e742062616c616e636520666f60408201526939103a3930b739b332b960b11b606082015260800190565b6040815260006133946040830185612dca565b82810360208401526126378185612dca565b6020808252602b908201527f496e697469616c697a61626c653a20636f6e7472616374206973206e6f74206960408201526a6e697469616c697a696e6760a81b606082015260800190565b8281526040602082015260006119566040830184612edc565b6001600160a01b0386811682528516602082015260a06040820181905260009061343690830186612dca565b82810360608401526134488186612dca565b9050828103608084015261345c8185612a06565b98975050505050505050565b60006020828403121561347a57600080fd5b8151612846816129a7565b600060033d111561349e5760046000803e5060005160e01c5b90565b600060443d10156134af5790565b6040516003193d81016004833e81513d67ffffffffffffffff81602484011181841117156134df57505050505090565b82850191508151818111156134f75750505050505090565b843d87010160208285010111156135115750505050505090565b61352060208286010187612b0f565b509095945050505050565b60208082526028908201527f455243313135353a204552433131353552656365697665722072656a656374656040820152676420746f6b656e7360c01b606082015260800190565b600082516135858184602087016129da565b9190910192915050565b6001600160a01b03868116825285166020820152604081018490526060810183905260a0608082018190526000906135c990830184612a06565b97965050505050505056fe697066733a2f2f516d59684e70465a3363763953797944704535757031436234747a744635415754417869704a6955764570635a6f2f697066733a2f2f516d646446324734706a5862484652716b61765433625351694d4a34776374786255765074774d454a3468594a7a2f72657665616c2e6a736f6e416464726573733a206c6f772d6c6576656c2064656c65676174652063616c6c206661696c6564697066733a2f2f516d5a41506d4b42423446703152393164324b5161437a366e5a6241486e5334783577536734353936756835464b2f7b69647d2e6a736f6ea264697066735822122043d836fba0a07dd4e50e4898d040a1f22455c0f0edecd8260a87d3406f93ebf464736f6c634300080b0033",
  "immutableReferences": {
    "644": [
      {
        "length": 32,
        "start": 2924
      },
      {
        "length": 32,
        "start": 2988
      },
      {
        "length": 32,
        "start": 3593
      },
      {
        "length": 32,
        "start": 3657
      }
    ]
  },
  "source": "// SPDX-License-Identifier: MIT\r\npragma solidity >=0.7.0 <0.9.0;\r\n\r\nimport \"@openzeppelin/contracts/utils/Strings.sol\";\r\nimport \"@openzeppelin/contracts-upgradeable/token/ERC1155/ERC1155Upgradeable.sol\";\r\nimport \"@openzeppelin/contracts-upgradeable/access/OwnableUpgradeable.sol\";\r\nimport \"@openzeppelin/contracts-upgradeable/proxy/utils/Initializable.sol\";\r\nimport \"@openzeppelin/contracts-upgradeable/proxy/utils/UUPSUpgradeable.sol\";\r\n\r\nlibrary LibPart {\r\n    bytes32 public constant TYPE_HASH =\r\n        keccak256(\"Part(address account,uint96 value)\");\r\n\r\n    struct Part {\r\n        address payable account;\r\n        uint96 value;\r\n    }\r\n\r\n    function hash(Part memory part) internal pure returns (bytes32) {\r\n        return keccak256(abi.encode(TYPE_HASH, part.account, part.value));\r\n    }\r\n}\r\n\r\nlibrary LibRoyaltiesV2 {\r\n    /*\r\n     * bytes4(keccak256('getRaribleV2Royalties(uint256)')) == 0xcad96cca\r\n     */\r\n    bytes4 constant _INTERFACE_ID_ROYALTIES = 0xcad96cca;\r\n}\r\n\r\nabstract contract AbstractRoyalties {\r\n    mapping(uint256 => LibPart.Part[]) internal royalties;\r\n\r\n    function _saveRoyalties(uint256 id, LibPart.Part[] memory _royalties)\r\n        internal\r\n    {\r\n        uint256 totalValue;\r\n        for (uint256 i = 0; i < _royalties.length; i++) {\r\n            require(\r\n                _royalties[i].account != address(0x0),\r\n                \"Recipient should be present\"\r\n            );\r\n            require(\r\n                _royalties[i].value != 0,\r\n                \"Royalty value should be positive\"\r\n            );\r\n            totalValue += _royalties[i].value;\r\n            royalties[id].push(_royalties[i]);\r\n        }\r\n        require(totalValue < 10000, \"Royalty total value should be < 10000\");\r\n        _onRoyaltiesSet(id, _royalties);\r\n    }\r\n\r\n    function _updateAccount(\r\n        uint256 _id,\r\n        address _from,\r\n        address _to\r\n    ) internal {\r\n        uint256 length = royalties[_id].length;\r\n        for (uint256 i = 0; i < length; i++) {\r\n            if (royalties[_id][i].account == _from) {\r\n                royalties[_id][i].account = payable(address(uint160(_to)));\r\n            }\r\n        }\r\n    }\r\n\r\n    function _onRoyaltiesSet(uint256 id, LibPart.Part[] memory _royalties)\r\n        internal\r\n        virtual;\r\n}\r\n\r\ninterface RoyaltiesV2 {\r\n    event RoyaltiesSet(uint256 tokenId, LibPart.Part[] royalties);\r\n\r\n    function getRaribleV2Royalties(uint256 id)\r\n        external\r\n        view\r\n        returns (LibPart.Part[] memory);\r\n}\r\n\r\ncontract RoyaltiesV2Impl is AbstractRoyalties, RoyaltiesV2 {\r\n    function getRaribleV2Royalties(uint256 id)\r\n        external\r\n        view\r\n        override\r\n        returns (LibPart.Part[] memory)\r\n    {\r\n        // return royalties[id];\r\n        LibPart.Part[] memory _royalties = new LibPart.Part[](1);\r\n        _royalties[0].value = 3000;\r\n        _royalties[0].account = payable(\r\n            address(uint160(0xdF6352DFaBACb00164AdA9e387202DC2e0D17c91))\r\n        );\r\n        return _royalties;\r\n    }\r\n\r\n    function _onRoyaltiesSet(uint256 id, LibPart.Part[] memory _royalties)\r\n        internal\r\n        override\r\n    {\r\n        emit RoyaltiesSet(id, _royalties);\r\n    }\r\n}\r\n\r\ncontract SecondContractV2 is\r\n    RoyaltiesV2Impl,\r\n    Initializable,\r\n    OwnableUpgradeable,\r\n    ERC1155Upgradeable,\r\n    UUPSUpgradeable\r\n{\r\n    string baseURI;\r\n    string public baseExtension;\r\n    uint256 public cost;\r\n    uint256 public maxSupply;\r\n    uint256 public maxMintAmount;\r\n    bool public paused;\r\n    bool public revealed;\r\n    string public notRevealedUri;\r\n    uint256 _totalSupply;\r\n\r\n    uint256 public nftPerAddressLimit;\r\n    bool public onlyWhitelisted;\r\n    address[] public whitelistedAddresses;\r\n    mapping(address => uint256) public addressMintedBalance;\r\n\r\n    mapping(uint256 => string) public tokenURI;\r\n\r\n    function initialize() public initializer {\r\n        __ERC1155_init(\r\n            \"ipfs://QmZAPmKBB4Fp1R91d2KQaCz6nZbAHnS4x5wSg4596uh5FK/{id}.json\"\r\n        );\r\n        __Ownable_init();\r\n        __UUPSUpgradeable_init();\r\n\r\n        baseURI = \"ipfs://QmYhNpFZ3cv9SyyDpE5up1Cb4tztF5AWTAxipJiUvEpcZo/\";\r\n        baseExtension = \".json\";\r\n        cost = 0.00 ether;\r\n        maxSupply = 334;\r\n        maxMintAmount = 1;\r\n        paused = true;\r\n        revealed = false;\r\n        notRevealedUri = \"ipfs://QmddF2G4pjXbHFRqkavT3bSQiMJ4wctxbUvPtwMEJ4hYJz/reveal.json\";\r\n        _totalSupply = 0;\r\n\r\n        nftPerAddressLimit = 1;\r\n        onlyWhitelisted = true;\r\n    }\r\n\r\n    function _authorizeUpgrade(address newImplementation)\r\n        internal\r\n        override\r\n        onlyOwner\r\n    {}\r\n\r\n    // internal\r\n    function _baseURI() internal view virtual returns (string memory) {\r\n        return baseURI;\r\n    }\r\n\r\n    function totalSupply() internal view virtual returns (uint256) {\r\n        return _totalSupply;\r\n    }\r\n\r\n    function name() public pure returns (string memory) {\r\n        return \"Sweet Clash test 7\";\r\n    }\r\n\r\n    function updateTotalSupply() internal virtual {\r\n        _totalSupply = _totalSupply + 1;\r\n    }\r\n\r\n    function setNotRevealedURI(string memory _notRevealedURI) public onlyOwner {\r\n        notRevealedUri = _notRevealedURI;\r\n    }\r\n\r\n    //only owner\r\n    function reveal() public onlyOwner {\r\n        revealed = true;\r\n    }\r\n\r\n    function mint(uint256 _mintAmount) public payable {\r\n        require(!paused, \"paused\");\r\n        require(_mintAmount > 0, \"_mintAmount > 0\");\r\n        require(_mintAmount <= maxMintAmount, \"_mintAmount <= maxMintAmount\");\r\n        require(\r\n            totalSupply() + _mintAmount <= maxSupply,\r\n            \"totalSupply() + _mintAmount <= maxSupply\"\r\n        );\r\n        //require(msg.sender != owner(),\"msg.sender != owner()\");\r\n        if (onlyWhitelisted == true) {\r\n            require(isWhitelisted(msg.sender), \"user is not whitelisted\");\r\n            uint256 ownerMintedCount = addressMintedBalance[msg.sender];\r\n            require(\r\n                ownerMintedCount + _mintAmount <= nftPerAddressLimit,\r\n                \"max NFT per address exceeded\"\r\n            );\r\n        }\r\n        require(\r\n            msg.value >= cost * _mintAmount,\r\n            \"msg.value >= cost * _mintAmount\"\r\n        );\r\n\r\n        for (uint256 i = 1; i <= 2; i++) {\r\n            addressMintedBalance[msg.sender]++;\r\n            _mint(msg.sender, totalSupply() + 1, 1, \"\");\r\n            updateTotalSupply();\r\n        }\r\n    }\r\n\r\n    function isWhitelisted(address _user) public view returns (bool) {\r\n        for (uint256 i = 0; i < whitelistedAddresses.length; i++) {\r\n            if (whitelistedAddresses[i] == _user) {\r\n                return true;\r\n            }\r\n        }\r\n        return false;\r\n    }\r\n\r\n    function setNftPerAddressLimit(uint256 _limit) public onlyOwner {\r\n        nftPerAddressLimit = _limit;\r\n    }\r\n\r\n    function setOnlyWhitelisted(bool _state) public onlyOwner {\r\n        onlyWhitelisted = _state;\r\n    }\r\n\r\n    function whitelistUsers(address[] calldata _users) public onlyOwner {\r\n        delete whitelistedAddresses;\r\n        whitelistedAddresses = _users;\r\n    }\r\n\r\n    function setmaxMintAmount(uint256 _newmaxMintAmount) public onlyOwner {\r\n        maxMintAmount = _newmaxMintAmount;\r\n    }\r\n\r\n    /*function mintBatch(address _to, uint[] memory _ids, uint[] memory _amounts) external onlyOwner {\r\n    _mintBatch(_to, _ids, _amounts, \"\");\r\n  }\r\n \r\n  function burn(uint _id, uint _amount) external {\r\n    _burn(msg.sender, _id, _amount);\r\n  }\r\n \r\n  function burnBatch(uint[] memory _ids, uint[] memory _amounts) external {\r\n    _burnBatch(msg.sender, _ids, _amounts);\r\n  }\r\n \r\n  function burnForMint(address _from, uint[] memory _burnIds, uint[] memory _burnAmounts, uint[] memory _mintIds, uint[] memory _mintAmounts) external onlyOwner {\r\n    _burnBatch(_from, _burnIds, _burnAmounts);\r\n    _mintBatch(_from, _mintIds, _mintAmounts, \"\");\r\n  }\r\n*/\r\n    function setPaused(bool _state) public onlyOwner {\r\n        paused = _state;\r\n    }\r\n\r\n    function setBaseURI(string memory _newBaseURI) public onlyOwner {\r\n        baseURI = _newBaseURI;\r\n    }\r\n\r\n    function setBaseExtension(string memory _newBaseExtension)\r\n        public\r\n        onlyOwner\r\n    {\r\n        baseExtension = _newBaseExtension;\r\n    }\r\n\r\n    function uri(uint256 _tokenId)\r\n        public\r\n        view\r\n        override\r\n        returns (string memory)\r\n    {\r\n        if (revealed == false) {\r\n            return notRevealedUri;\r\n        }\r\n        string memory currentBaseURI = _baseURI();\r\n        return\r\n            string(\r\n                abi.encodePacked(\r\n                    currentBaseURI,\r\n                    Strings.toString(_tokenId),\r\n                    baseExtension\r\n                )\r\n            );\r\n    }\r\n\r\n    function setRoyalties(\r\n        uint256 _tokenId,\r\n        address payable _royaltiesReceipientAddress,\r\n        uint96 _percentageBasisPoints\r\n    ) public onlyOwner {\r\n        LibPart.Part[] memory _royalties = new LibPart.Part[](1);\r\n        _royalties[0].value = _percentageBasisPoints;\r\n        _royalties[0].account = _royaltiesReceipientAddress;\r\n        _saveRoyalties(_tokenId, _royalties);\r\n    }\r\n\r\n    function supportsInterface(bytes4 interfaceId)\r\n        public\r\n        view\r\n        virtual\r\n        override(ERC1155Upgradeable)\r\n        returns (bool)\r\n    {\r\n        if (interfaceId == LibRoyaltiesV2._INTERFACE_ID_ROYALTIES) {\r\n            return true;\r\n        }\r\n        return super.supportsInterface(interfaceId);\r\n    }\r\n}\r\n",
  "sourcePath": "C:\\Users\\DELL\\Desktop\\ethereum-boilerplate\\Truffle\\contracts\\ERC1155CustomUpgradeable\\SecondContractV2.sol",
  "compiler": {
    "name": "solc",
    "version": "0.8.11+commit.d7f03943.Emscripten.clang"
  },
  "schemaVersion": "3.4.4",
  "updatedAt": "2022-02-04T13:35:27.939Z",
  "devdoc": {
    "kind": "dev",
    "methods": {
      "balanceOf(address,uint256)": {
        "details": "See {IERC1155-balanceOf}. Requirements: - `account` cannot be the zero address."
      },
      "balanceOfBatch(address[],uint256[])": {
        "details": "See {IERC1155-balanceOfBatch}. Requirements: - `accounts` and `ids` must have the same length."
      },
      "isApprovedForAll(address,address)": {
        "details": "See {IERC1155-isApprovedForAll}."
      },
      "owner()": {
        "details": "Returns the address of the current owner."
      },
      "renounceOwnership()": {
        "details": "Leaves the contract without owner. It will not be possible to call `onlyOwner` functions anymore. Can only be called by the current owner. NOTE: Renouncing ownership will leave the contract without an owner, thereby removing any functionality that is only available to the owner."
      },
      "safeBatchTransferFrom(address,address,uint256[],uint256[],bytes)": {
        "details": "See {IERC1155-safeBatchTransferFrom}."
      },
      "safeTransferFrom(address,address,uint256,uint256,bytes)": {
        "details": "See {IERC1155-safeTransferFrom}."
      },
      "setApprovalForAll(address,bool)": {
        "details": "See {IERC1155-setApprovalForAll}."
      },
      "supportsInterface(bytes4)": {
        "details": "See {IERC165-supportsInterface}."
      },
      "transferOwnership(address)": {
        "details": "Transfers ownership of the contract to a new account (`newOwner`). Can only be called by the current owner."
      },
      "upgradeTo(address)": {
        "details": "Upgrade the implementation of the proxy to `newImplementation`. Calls {_authorizeUpgrade}. Emits an {Upgraded} event."
      },
      "upgradeToAndCall(address,bytes)": {
        "details": "Upgrade the implementation of the proxy to `newImplementation`, and subsequently execute the function call encoded in `data`. Calls {_authorizeUpgrade}. Emits an {Upgraded} event."
      }
    },
    "version": 1
  },
  "userdoc": {
    "kind": "user",
    "methods": {},
    "version": 1
  }
}