{
  "contractName": "SecondContractV3",
  "abi": [
    {
      "anonymous": false,
      "inputs": [
        {
          "indexed": false,
          "internalType": "address",
          "name": "previousAdmin",
          "type": "address"
        },
        {
          "indexed": false,
          "internalType": "address",
          "name": "newAdmin",
          "type": "address"
        }
      ],
      "name": "AdminChanged",
      "type": "event"
    },
    {
      "anonymous": false,
      "inputs": [
        {
          "indexed": true,
          "internalType": "address",
          "name": "account",
          "type": "address"
        },
        {
          "indexed": true,
          "internalType": "address",
          "name": "operator",
          "type": "address"
        },
        {
          "indexed": false,
          "internalType": "bool",
          "name": "approved",
          "type": "bool"
        }
      ],
      "name": "ApprovalForAll",
      "type": "event"
    },
    {
      "anonymous": false,
      "inputs": [
        {
          "indexed": true,
          "internalType": "address",
          "name": "beacon",
          "type": "address"
        }
      ],
      "name": "BeaconUpgraded",
      "type": "event"
    },
    {
      "anonymous": false,
      "inputs": [
        {
          "indexed": true,
          "internalType": "address",
          "name": "previousOwner",
          "type": "address"
        },
        {
          "indexed": true,
          "internalType": "address",
          "name": "newOwner",
          "type": "address"
        }
      ],
      "name": "OwnershipTransferred",
      "type": "event"
    },
    {
      "anonymous": false,
      "inputs": [
        {
          "indexed": false,
          "internalType": "uint256",
          "name": "tokenId",
          "type": "uint256"
        },
        {
          "components": [
            {
              "internalType": "address payable",
              "name": "account",
              "type": "address"
            },
            {
              "internalType": "uint96",
              "name": "value",
              "type": "uint96"
            }
          ],
          "indexed": false,
          "internalType": "struct LibPart.Part[]",
          "name": "royalties",
          "type": "tuple[]"
        }
      ],
      "name": "RoyaltiesSet",
      "type": "event"
    },
    {
      "anonymous": false,
      "inputs": [
        {
          "indexed": true,
          "internalType": "address",
          "name": "operator",
          "type": "address"
        },
        {
          "indexed": true,
          "internalType": "address",
          "name": "from",
          "type": "address"
        },
        {
          "indexed": true,
          "internalType": "address",
          "name": "to",
          "type": "address"
        },
        {
          "indexed": false,
          "internalType": "uint256[]",
          "name": "ids",
          "type": "uint256[]"
        },
        {
          "indexed": false,
          "internalType": "uint256[]",
          "name": "values",
          "type": "uint256[]"
        }
      ],
      "name": "TransferBatch",
      "type": "event"
    },
    {
      "anonymous": false,
      "inputs": [
        {
          "indexed": true,
          "internalType": "address",
          "name": "operator",
          "type": "address"
        },
        {
          "indexed": true,
          "internalType": "address",
          "name": "from",
          "type": "address"
        },
        {
          "indexed": true,
          "internalType": "address",
          "name": "to",
          "type": "address"
        },
        {
          "indexed": false,
          "internalType": "uint256",
          "name": "id",
          "type": "uint256"
        },
        {
          "indexed": false,
          "internalType": "uint256",
          "name": "value",
          "type": "uint256"
        }
      ],
      "name": "TransferSingle",
      "type": "event"
    },
    {
      "anonymous": false,
      "inputs": [
        {
          "indexed": false,
          "internalType": "string",
          "name": "value",
          "type": "string"
        },
        {
          "indexed": true,
          "internalType": "uint256",
          "name": "id",
          "type": "uint256"
        }
      ],
      "name": "URI",
      "type": "event"
    },
    {
      "anonymous": false,
      "inputs": [
        {
          "indexed": true,
          "internalType": "address",
          "name": "implementation",
          "type": "address"
        }
      ],
      "name": "Upgraded",
      "type": "event"
    },
    {
      "stateMutability": "payable",
      "type": "fallback",
      "payable": true
    },
    {
      "inputs": [
        {
          "internalType": "address",
          "name": "",
          "type": "address"
        }
      ],
      "name": "addressMintedBalance",
      "outputs": [
        {
          "internalType": "uint256",
          "name": "",
          "type": "uint256"
        }
      ],
      "stateMutability": "view",
      "type": "function",
      "constant": true
    },
    {
      "inputs": [],
      "name": "artist",
      "outputs": [
        {
          "internalType": "address",
          "name": "",
          "type": "address"
        }
      ],
      "stateMutability": "view",
      "type": "function",
      "constant": true
    },
    {
      "inputs": [
        {
          "internalType": "address",
          "name": "account",
          "type": "address"
        },
        {
          "internalType": "uint256",
          "name": "id",
          "type": "uint256"
        }
      ],
      "name": "balanceOf",
      "outputs": [
        {
          "internalType": "uint256",
          "name": "",
          "type": "uint256"
        }
      ],
      "stateMutability": "view",
      "type": "function",
      "constant": true
    },
    {
      "inputs": [
        {
          "internalType": "address[]",
          "name": "accounts",
          "type": "address[]"
        },
        {
          "internalType": "uint256[]",
          "name": "ids",
          "type": "uint256[]"
        }
      ],
      "name": "balanceOfBatch",
      "outputs": [
        {
          "internalType": "uint256[]",
          "name": "",
          "type": "uint256[]"
        }
      ],
      "stateMutability": "view",
      "type": "function",
      "constant": true
    },
    {
      "inputs": [],
      "name": "baseExtension",
      "outputs": [
        {
          "internalType": "string",
          "name": "",
          "type": "string"
        }
      ],
      "stateMutability": "view",
      "type": "function",
      "constant": true
    },
    {
      "inputs": [],
      "name": "cost",
      "outputs": [
        {
          "internalType": "uint256",
          "name": "",
          "type": "uint256"
        }
      ],
      "stateMutability": "view",
      "type": "function",
      "constant": true
    },
    {
      "inputs": [
        {
          "internalType": "address",
          "name": "",
          "type": "address"
        }
      ],
      "name": "excludedList",
      "outputs": [
        {
          "internalType": "bool",
          "name": "",
          "type": "bool"
        }
      ],
      "stateMutability": "view",
      "type": "function",
      "constant": true
    },
    {
      "inputs": [
        {
          "internalType": "uint256",
          "name": "id",
          "type": "uint256"
        }
      ],
      "name": "getRaribleV2Royalties",
      "outputs": [
        {
          "components": [
            {
              "internalType": "address payable",
              "name": "account",
              "type": "address"
            },
            {
              "internalType": "uint96",
              "name": "value",
              "type": "uint96"
            }
          ],
          "internalType": "struct LibPart.Part[]",
          "name": "",
          "type": "tuple[]"
        }
      ],
      "stateMutability": "view",
      "type": "function",
      "constant": true
    },
    {
      "inputs": [
        {
          "internalType": "address",
          "name": "account",
          "type": "address"
        },
        {
          "internalType": "address",
          "name": "operator",
          "type": "address"
        }
      ],
      "name": "isApprovedForAll",
      "outputs": [
        {
          "internalType": "bool",
          "name": "",
          "type": "bool"
        }
      ],
      "stateMutability": "view",
      "type": "function",
      "constant": true
    },
    {
      "inputs": [],
      "name": "maxMintAmount",
      "outputs": [
        {
          "internalType": "uint256",
          "name": "",
          "type": "uint256"
        }
      ],
      "stateMutability": "view",
      "type": "function",
      "constant": true
    },
    {
      "inputs": [],
      "name": "maxSupply",
      "outputs": [
        {
          "internalType": "uint256",
          "name": "",
          "type": "uint256"
        }
      ],
      "stateMutability": "view",
      "type": "function",
      "constant": true
    },
    {
      "inputs": [],
      "name": "nftPerAddressLimit",
      "outputs": [
        {
          "internalType": "uint256",
          "name": "",
          "type": "uint256"
        }
      ],
      "stateMutability": "view",
      "type": "function",
      "constant": true
    },
    {
      "inputs": [],
      "name": "notRevealedUri",
      "outputs": [
        {
          "internalType": "string",
          "name": "",
          "type": "string"
        }
      ],
      "stateMutability": "view",
      "type": "function",
      "constant": true
    },
    {
      "inputs": [
        {
          "internalType": "uint256",
          "name": "",
          "type": "uint256"
        }
      ],
      "name": "onwners",
      "outputs": [
        {
          "internalType": "address",
          "name": "",
          "type": "address"
        }
      ],
      "stateMutability": "view",
      "type": "function",
      "constant": true
    },
    {
      "inputs": [
        {
          "internalType": "address",
          "name": "",
          "type": "address"
        }
      ],
      "name": "onwnersBalance",
      "outputs": [
        {
          "internalType": "uint256",
          "name": "",
          "type": "uint256"
        }
      ],
      "stateMutability": "view",
      "type": "function",
      "constant": true
    },
    {
      "inputs": [],
      "name": "owner",
      "outputs": [
        {
          "internalType": "address",
          "name": "",
          "type": "address"
        }
      ],
      "stateMutability": "view",
      "type": "function",
      "constant": true
    },
    {
      "inputs": [],
      "name": "renounceOwnership",
      "outputs": [],
      "stateMutability": "nonpayable",
      "type": "function"
    },
    {
      "inputs": [],
      "name": "revealed",
      "outputs": [
        {
          "internalType": "bool",
          "name": "",
          "type": "bool"
        }
      ],
      "stateMutability": "view",
      "type": "function",
      "constant": true
    },
    {
      "inputs": [
        {
          "internalType": "address",
          "name": "from",
          "type": "address"
        },
        {
          "internalType": "address",
          "name": "to",
          "type": "address"
        },
        {
          "internalType": "uint256[]",
          "name": "ids",
          "type": "uint256[]"
        },
        {
          "internalType": "uint256[]",
          "name": "amounts",
          "type": "uint256[]"
        },
        {
          "internalType": "bytes",
          "name": "data",
          "type": "bytes"
        }
      ],
      "name": "safeBatchTransferFrom",
      "outputs": [],
      "stateMutability": "nonpayable",
      "type": "function"
    },
    {
      "inputs": [
        {
          "internalType": "address",
          "name": "operator",
          "type": "address"
        },
        {
          "internalType": "bool",
          "name": "approved",
          "type": "bool"
        }
      ],
      "name": "setApprovalForAll",
      "outputs": [],
      "stateMutability": "nonpayable",
      "type": "function"
    },
    {
      "inputs": [
        {
          "internalType": "uint256",
          "name": "",
          "type": "uint256"
        }
      ],
      "name": "tokenURI",
      "outputs": [
        {
          "internalType": "string",
          "name": "",
          "type": "string"
        }
      ],
      "stateMutability": "view",
      "type": "function",
      "constant": true
    },
    {
      "inputs": [
        {
          "internalType": "address",
          "name": "newOwner",
          "type": "address"
        }
      ],
      "name": "transferOwnership",
      "outputs": [],
      "stateMutability": "nonpayable",
      "type": "function"
    },
    {
      "inputs": [],
      "name": "txFeeAmount",
      "outputs": [
        {
          "internalType": "uint256",
          "name": "",
          "type": "uint256"
        }
      ],
      "stateMutability": "view",
      "type": "function",
      "constant": true
    },
    {
      "inputs": [],
      "name": "txFeeToken",
      "outputs": [
        {
          "internalType": "address",
          "name": "",
          "type": "address"
        }
      ],
      "stateMutability": "view",
      "type": "function",
      "constant": true
    },
    {
      "inputs": [
        {
          "internalType": "address",
          "name": "newImplementation",
          "type": "address"
        }
      ],
      "name": "upgradeTo",
      "outputs": [],
      "stateMutability": "nonpayable",
      "type": "function"
    },
    {
      "inputs": [
        {
          "internalType": "address",
          "name": "newImplementation",
          "type": "address"
        },
        {
          "internalType": "bytes",
          "name": "data",
          "type": "bytes"
        }
      ],
      "name": "upgradeToAndCall",
      "outputs": [],
      "stateMutability": "payable",
      "type": "function",
      "payable": true
    },
    {
      "inputs": [
        {
          "internalType": "uint256",
          "name": "",
          "type": "uint256"
        }
      ],
      "name": "whitelistedAddresses",
      "outputs": [
        {
          "internalType": "address",
          "name": "",
          "type": "address"
        }
      ],
      "stateMutability": "view",
      "type": "function",
      "constant": true
    },
    {
      "stateMutability": "payable",
      "type": "receive",
      "payable": true
    },
    {
      "inputs": [],
      "name": "initialize",
      "outputs": [],
      "stateMutability": "nonpayable",
      "type": "function"
    },
    {
      "inputs": [],
      "name": "name",
      "outputs": [
        {
          "internalType": "string",
          "name": "",
          "type": "string"
        }
      ],
      "stateMutability": "pure",
      "type": "function",
      "constant": true
    },
    {
      "inputs": [],
      "name": "onlyWhitelisted",
      "outputs": [
        {
          "internalType": "bool",
          "name": "",
          "type": "bool"
        }
      ],
      "stateMutability": "view",
      "type": "function",
      "constant": true
    },
    {
      "inputs": [],
      "name": "isPaused",
      "outputs": [
        {
          "internalType": "bool",
          "name": "",
          "type": "bool"
        }
      ],
      "stateMutability": "view",
      "type": "function",
      "constant": true
    },
    {
      "inputs": [
        {
          "internalType": "string",
          "name": "_notRevealedURI",
          "type": "string"
        }
      ],
      "name": "setNotRevealedURI",
      "outputs": [],
      "stateMutability": "nonpayable",
      "type": "function"
    },
    {
      "inputs": [],
      "name": "reveal",
      "outputs": [],
      "stateMutability": "nonpayable",
      "type": "function"
    },
    {
      "inputs": [
        {
          "internalType": "uint256",
          "name": "_mintAmount",
          "type": "uint256"
        }
      ],
      "name": "mint",
      "outputs": [],
      "stateMutability": "payable",
      "type": "function",
      "payable": true
    },
    {
      "inputs": [
        {
          "internalType": "address",
          "name": "_user",
          "type": "address"
        }
      ],
      "name": "isOwner",
      "outputs": [
        {
          "internalType": "bool",
          "name": "",
          "type": "bool"
        }
      ],
      "stateMutability": "view",
      "type": "function",
      "constant": true
    },
    {
      "inputs": [
        {
          "internalType": "address",
          "name": "_user",
          "type": "address"
        }
      ],
      "name": "isWhitelisted",
      "outputs": [
        {
          "internalType": "bool",
          "name": "",
          "type": "bool"
        }
      ],
      "stateMutability": "view",
      "type": "function",
      "constant": true
    },
    {
      "inputs": [
        {
          "internalType": "uint256",
          "name": "_limit",
          "type": "uint256"
        }
      ],
      "name": "setNftPerAddressLimit",
      "outputs": [],
      "stateMutability": "nonpayable",
      "type": "function"
    },
    {
      "inputs": [
        {
          "internalType": "bool",
          "name": "_state",
          "type": "bool"
        }
      ],
      "name": "setOnlyWhitelisted",
      "outputs": [],
      "stateMutability": "nonpayable",
      "type": "function"
    },
    {
      "inputs": [
        {
          "internalType": "address[]",
          "name": "_users",
          "type": "address[]"
        }
      ],
      "name": "whitelistUsers",
      "outputs": [],
      "stateMutability": "nonpayable",
      "type": "function"
    },
    {
      "inputs": [
        {
          "internalType": "uint256",
          "name": "_newmaxMintAmount",
          "type": "uint256"
        }
      ],
      "name": "setmaxMintAmount",
      "outputs": [],
      "stateMutability": "nonpayable",
      "type": "function"
    },
    {
      "inputs": [
        {
          "internalType": "bool",
          "name": "_state",
          "type": "bool"
        }
      ],
      "name": "setPaused",
      "outputs": [],
      "stateMutability": "nonpayable",
      "type": "function"
    },
    {
      "inputs": [
        {
          "internalType": "string",
          "name": "_newBaseURI",
          "type": "string"
        }
      ],
      "name": "setBaseURI",
      "outputs": [],
      "stateMutability": "nonpayable",
      "type": "function"
    },
    {
      "inputs": [
        {
          "internalType": "string",
          "name": "_newBaseExtension",
          "type": "string"
        }
      ],
      "name": "setBaseExtension",
      "outputs": [],
      "stateMutability": "nonpayable",
      "type": "function"
    },
    {
      "inputs": [
        {
          "internalType": "uint256",
          "name": "_tokenId",
          "type": "uint256"
        }
      ],
      "name": "uri",
      "outputs": [
        {
          "internalType": "string",
          "name": "",
          "type": "string"
        }
      ],
      "stateMutability": "view",
      "type": "function",
      "constant": true
    },
    {
      "inputs": [
        {
          "internalType": "address",
          "name": "from",
          "type": "address"
        },
        {
          "internalType": "address",
          "name": "to",
          "type": "address"
        },
        {
          "internalType": "uint256",
          "name": "id",
          "type": "uint256"
        },
        {
          "internalType": "uint256",
          "name": "amount",
          "type": "uint256"
        },
        {
          "internalType": "bytes",
          "name": "data",
          "type": "bytes"
        }
      ],
      "name": "safeTransferFrom",
      "outputs": [],
      "stateMutability": "nonpayable",
      "type": "function"
    },
    {
      "inputs": [
        {
          "internalType": "uint256",
          "name": "_tokenId",
          "type": "uint256"
        },
        {
          "internalType": "address payable",
          "name": "_royaltiesReceipientAddress",
          "type": "address"
        },
        {
          "internalType": "uint96",
          "name": "_percentageBasisPoints",
          "type": "uint96"
        }
      ],
      "name": "setRoyalties",
      "outputs": [],
      "stateMutability": "nonpayable",
      "type": "function"
    },
    {
      "inputs": [
        {
          "internalType": "bytes4",
          "name": "interfaceId",
          "type": "bytes4"
        }
      ],
      "name": "supportsInterface",
      "outputs": [
        {
          "internalType": "bool",
          "name": "",
          "type": "bool"
        }
      ],
      "stateMutability": "view",
      "type": "function",
      "constant": true
    },
    {
      "inputs": [],
      "name": "getBalance",
      "outputs": [
        {
          "internalType": "uint256",
          "name": "",
          "type": "uint256"
        }
      ],
      "stateMutability": "view",
      "type": "function",
      "constant": true
    },
    {
      "inputs": [],
      "name": "withdraw",
      "outputs": [],
      "stateMutability": "payable",
      "type": "function",
      "payable": true
    }
  ],
  "bytecode": "0x60a06040523060805234801561001457600080fd5b50608051613c7661004560003960008181610d4b01528181610d8b015281816111fe015261123e0152613c766000f3fe6080604052600436106102965760003560e01c8063715018a611610166578063ba7d2c76116100d3578063da3ef23f1161008f578063efdc996b1161006c578063efdc996b1461085f578063f242432a1461087f578063f2c4ce1e1461089f578063f2fde38b146108bf57005b8063da3ef23f146107d6578063e985e9c5146107f6578063edec5f271461083f57005b8063ba7d2c7614610726578063c66828621461073d578063c87b56dd14610752578063cad96cca14610772578063d0eb26b01461079f578063d5abeb01146107bf57005b80639c70b512116101225780639c70b5121461068c578063a0712d68146106a5578063a22cb465146106b8578063a475b5dd146106d8578063b187bd26146106ed578063ba4e5c491461070657005b8063715018a6146105ec57806377c567a7146106015780637f00c7a6146106225780638129fc1c146106425780638da5cb5b146106575780638fbceaad1461067557005b80632eb2c2d61161020457806343bc1612116101c057806343bc1612146105025780634e1273f41461053b5780634f1ef28614610568578063518302271461057b57806355f804b31461059b5780635600d2fa146105bb57005b80632eb2c2d61461045a5780632f54bf6e1461047a5780633659cfe61461049a5780633af32abf146104ba5780633c952764146104da5780633ccfd60b146104fa57005b806312065fe01161025357806312065fe0146103ab57806313faede6146103be578063143094db146103d557806316c38b3c146103f557806318cae26914610415578063239c70ae1461044357005b8062fdd58e1461029f57806301ffc9a7146102d2578063056402281461030257806306fdde0314610330578063081c8c44146103765780630e89341c1461038b57005b3661029d57005b005b3480156102ab57600080fd5b506102bf6102ba366004612ef3565b6108df565b6040519081526020015b60405180910390f35b3480156102de57600080fd5b506102f26102ed366004612f35565b610978565b60405190151581526020016102c9565b34801561030e57600080fd5b506102bf61031d366004612f52565b61013f6020526000908152604090205481565b34801561033c57600080fd5b50604080518082019091526014815273537765657420436c617368207465737420322e3160601b60208201525b6040516102c99190612fc7565b34801561038257600080fd5b506103696109aa565b34801561039757600080fd5b506103696103a6366004612fda565b610a39565b3480156103b757600080fd5b50476102bf565b3480156103ca57600080fd5b506102bf6101305481565b3480156103e157600080fd5b5061029d6103f0366004612ff3565b610b21565b34801561040157600080fd5b5061029d610410366004613056565b610bff565b34801561042157600080fd5b506102bf610430366004612f52565b6101396020526000908152604090205481565b34801561044f57600080fd5b506102bf6101325481565b34801561046657600080fd5b5061029d6104753660046131c7565b610c3d565b34801561048657600080fd5b506102f2610495366004612f52565b610cd4565b3480156104a657600080fd5b5061029d6104b5366004612f52565b610d40565b3480156104c657600080fd5b506102f26104d5366004612f52565b610e09565b3480156104e657600080fd5b5061029d6104f5366004613056565b610e6c565b61029d610eaa565b34801561050e57600080fd5b5061013b54610523906001600160a01b031681565b6040516001600160a01b0390911681526020016102c9565b34801561054757600080fd5b5061055b610556366004613275565b6110c9565b6040516102c9919061337d565b61029d610576366004613390565b6111f3565b34801561058757600080fd5b50610133546102f290610100900460ff1681565b3480156105a757600080fd5b5061029d6105b63660046133d6565b6112ad565b3480156105c757600080fd5b506102f26105d6366004612f52565b61013e6020526000908152604090205460ff1681565b3480156105f857600080fd5b5061029d6112eb565b34801561060d57600080fd5b5061013c54610523906001600160a01b031681565b34801561062e57600080fd5b5061029d61063d366004612fda565b611321565b34801561064e57600080fd5b5061029d611351565b34801561066357600080fd5b506034546001600160a01b0316610523565b34801561068157600080fd5b506102bf61013d5481565b34801561069857600080fd5b506101375460ff166102f2565b61029d6106b3366004612fda565b611511565b3480156106c457600080fd5b5061029d6106d336600461341f565b61189f565b3480156106e457600080fd5b5061029d6118aa565b3480156106f957600080fd5b506101335460ff166102f2565b34801561071257600080fd5b50610523610721366004612fda565b6118e6565b34801561073257600080fd5b506102bf6101365481565b34801561074957600080fd5b50610369611911565b34801561075e57600080fd5b5061036961076d366004612fda565b61191f565b34801561077e57600080fd5b5061079261078d366004612fda565b611939565b6040516102c991906134a1565b3480156107ab57600080fd5b5061029d6107ba366004612fda565b6119fd565b3480156107cb57600080fd5b506102bf6101315481565b3480156107e257600080fd5b5061029d6107f13660046133d6565b611a2d565b34801561080257600080fd5b506102f26108113660046134b4565b6001600160a01b03918216600090815260996020908152604080832093909416825291909152205460ff1690565b34801561084b57600080fd5b5061029d61085a3660046134ed565b611a6b565b34801561086b57600080fd5b5061052361087a366004612fda565b611ab4565b34801561088b57600080fd5b5061029d61089a366004613562565b611ac5565b3480156108ab57600080fd5b5061029d6108ba3660046133d6565b611c17565b3480156108cb57600080fd5b5061029d6108da366004612f52565b611c55565b60006001600160a01b0383166109505760405162461bcd60e51b815260206004820152602b60248201527f455243313135353a2062616c616e636520717565727920666f7220746865207a60448201526a65726f206164647265737360a81b60648201526084015b60405180910390fd5b5060009081526098602090815260408083206001600160a01b03949094168352929052205490565b60006001600160e01b0319821663656cb66560e11b141561099b57506001919050565b6109a482611ced565b92915050565b61013480546109b8906135cb565b80601f01602080910402602001604051908101604052809291908181526020018280546109e4906135cb565b8015610a315780601f10610a0657610100808354040283529160200191610a31565b820191906000526020600020905b815481529060010190602001808311610a1457829003601f168201915b505050505081565b61013354606090610100900460ff16610adf576101348054610a5a906135cb565b80601f0160208091040260200160405190810160405280929190818152602001828054610a86906135cb565b8015610ad35780601f10610aa857610100808354040283529160200191610ad3565b820191906000526020600020905b815481529060010190602001808311610ab657829003601f168201915b50505050509050919050565b6000610ae9611d3d565b905080610af584611dd0565b61012f604051602001610b0a93929190613606565b604051602081830303815290604052915050919050565b6034546001600160a01b03163314610b4b5760405162461bcd60e51b8152600401610947906136ca565b604080516001808252818301909252600091816020015b6040805180820190915260008082526020820152815260200190600190039081610b625790505090508181600081518110610b9f57610b9f6136ff565b6020026020010151602001906001600160601b031690816001600160601b0316815250508281600081518110610bd757610bd76136ff565b60209081029190910101516001600160a01b039091169052610bf98482611ed6565b50505050565b6034546001600160a01b03163314610c295760405162461bcd60e51b8152600401610947906136ca565b610133805460ff1916911515919091179055565b6001600160a01b038516331480610c595750610c598533610811565b610cc05760405162461bcd60e51b815260206004820152603260248201527f455243313135353a207472616e736665722063616c6c6572206973206e6f74206044820152711bdddb995c881b9bdc88185c1c1c9bdd995960721b6064820152608401610947565b610ccd85858585856120f0565b5050505050565b6000805b61014054811015610d3757826001600160a01b03166101408281548110610d0157610d016136ff565b6000918252602090912001546001600160a01b03161415610d255750600192915050565b80610d2f8161372b565b915050610cd8565b50600092915050565b306001600160a01b037f0000000000000000000000000000000000000000000000000000000000000000161415610d895760405162461bcd60e51b815260040161094790613746565b7f00000000000000000000000000000000000000000000000000000000000000006001600160a01b0316610dbb6122d0565b6001600160a01b031614610de15760405162461bcd60e51b815260040161094790613792565b610dea816122fe565b60408051600080825260208201909252610e0691839190612328565b50565b6000805b61013854811015610d3757826001600160a01b03166101388281548110610e3657610e366136ff565b6000918252602090912001546001600160a01b03161415610e5a5750600192915050565b80610e648161372b565b915050610e0d565b6034546001600160a01b03163314610e965760405162461bcd60e51b8152600401610947906136ca565b610137805460ff1916911515919091179055565b600061014181905561014254610ec090476137de565b90506064610ecf8260326137f5565b610ed9919061382a565b61014254610ee7919061383e565b6101425560006064610efa83601e6137f5565b610f04919061382a565b905060006064610f158460146137f5565b610f1f919061382a565b905060005b6101405481101561105f57600061013f60006101408481548110610f4a57610f4a6136ff565b60009182526020808320909101546001600160a01b03168352820192909252604001902054111561104d5760006101408281548110610f8b57610f8b6136ff565b6000918252602090912001546001600160a01b0316610faa6101355490565b61013f60006101408681548110610fc357610fc36136ff565b60009182526020808320909101546001600160a01b03168352820192909252604001902054610ff2919061382a565b610ffc90866137f5565b604051600081818185875af1925050503d8060008114611038576040519150601f19603f3d011682016040523d82523d6000602084013e61103d565b606091505b505090508061104b57600080fd5b505b806110578161372b565b915050610f24565b506040516000907358b9e0c9d56c9c5ed3406907d5b4ba6b13f6a14f9083908381818185875af1925050503d80600081146110b6576040519150601f19603f3d011682016040523d82523d6000602084013e6110bb565b606091505b5050905080610bf957600080fd5b6060815183511461112e5760405162461bcd60e51b815260206004820152602960248201527f455243313135353a206163636f756e747320616e6420696473206c656e677468604482015268040dad2e6dac2e8c6d60bb1b6064820152608401610947565b6000835167ffffffffffffffff81111561114a5761114a613071565b604051908082528060200260200182016040528015611173578160200160208202803683370190505b50905060005b84518110156111eb576111be858281518110611197576111976136ff565b60200260200101518583815181106111b1576111b16136ff565b60200260200101516108df565b8282815181106111d0576111d06136ff565b60209081029190910101526111e48161372b565b9050611179565b509392505050565b306001600160a01b037f000000000000000000000000000000000000000000000000000000000000000016141561123c5760405162461bcd60e51b815260040161094790613746565b7f00000000000000000000000000000000000000000000000000000000000000006001600160a01b031661126e6122d0565b6001600160a01b0316146112945760405162461bcd60e51b815260040161094790613792565b61129d826122fe565b6112a982826001612328565b5050565b6034546001600160a01b031633146112d75760405162461bcd60e51b8152600401610947906136ca565b80516112a99061012e906020840190612dd4565b6034546001600160a01b031633146113155760405162461bcd60e51b8152600401610947906136ca565b61131f600061246c565b565b6034546001600160a01b0316331461134b5760405162461bcd60e51b8152600401610947906136ca565b61013255565b600154610100900460ff1661136c5760015460ff1615611370565b303b155b6113d35760405162461bcd60e51b815260206004820152602e60248201527f496e697469616c697a61626c653a20636f6e747261637420697320616c72656160448201526d191e481a5b9a5d1a585b1a5e995960921b6064820152608401610947565b600154610100900460ff161580156113f5576001805461ffff19166101011790555b6114166040518060600160405280603f8152602001613c02603f91396124be565b61141e6124fe565b611426612535565b604051806060016040528060368152602001613b646036913980516114549161012e91602090910190612dd4565b5060408051808201909152600580825264173539b7b760d91b60209092019182526114829161012f91612dd4565b5060006101305561014e610131556001610132819055610133805461ffff1916909117905560408051608081019091526041808252613b9a602083013980516114d49161013491602090910190612dd4565b5060006101358190556001610136819055610137805460ff19169091179055610141819055610142558015610e06576001805461ff001916905550565b6101335460ff161561154e5760405162461bcd60e51b81526020600482015260066024820152651c185d5cd95960d21b6044820152606401610947565b600081116115905760405162461bcd60e51b815260206004820152600f60248201526e05f6d696e74416d6f756e74203e203608c1b6044820152606401610947565b610132548111156115e35760405162461bcd60e51b815260206004820152601c60248201527f5f6d696e74416d6f756e74203c3d206d61784d696e74416d6f756e74000000006044820152606401610947565b61013154816115f26101355490565b6115fc919061383e565b111561165b5760405162461bcd60e51b815260206004820152602860248201527f746f74616c537570706c792829202b205f6d696e74416d6f756e74203c3d206d6044820152676178537570706c7960c01b6064820152608401610947565b6101375460ff161515600114156117305761167533610e09565b6116c15760405162461bcd60e51b815260206004820152601760248201527f75736572206973206e6f742077686974656c69737465640000000000000000006044820152606401610947565b3360009081526101396020526040902054610136546116e0838361383e565b111561172e5760405162461bcd60e51b815260206004820152601c60248201527f6d6178204e4654207065722061646472657373206578636565646564000000006044820152606401610947565b505b806101305461173f91906137f5565b34101561178e5760405162461bcd60e51b815260206004820152601f60248201527f6d73672e76616c7565203e3d20636f7374202a205f6d696e74416d6f756e74006044820152606401610947565b60015b8181116112a957336000908152610139602052604081208054916117b48361372b565b91905055506117c233610cd4565b61180a5761014080546001810182556000919091527f36eddf535f8049bd44c95b98fba53efacad21cb65d066f50b4d05adad523e77c0180546001600160a01b031916331790555b33600090815261013f602052604081208054916118268361372b565b9091555050610141805490600061183c8361372b565b9190505550610141546004141561185557611855610eaa565b611885336118636101355490565b61186e90600161383e565b60016040518060200160405280600081525061256c565b61188d612678565b806118978161372b565b915050611791565b6112a933838361268d565b6034546001600160a01b031633146118d45760405162461bcd60e51b8152600401610947906136ca565b610133805461ff001916610100179055565b61013881815481106118f757600080fd5b6000918252602090912001546001600160a01b0316905081565b61012f80546109b8906135cb565b61013a60205260009081526040902080546109b8906135cb565b60408051600180825281830190925260609160009190816020015b6040805180820190915260008082526020820152815260200190600190039081611954579050509050610bb881600081518110611993576119936136ff565b6020026020010151602001906001600160601b031690816001600160601b03168152505073df6352dfabacb00164ada9e387202dc2e0d17c91816000815181106119df576119df6136ff565b60209081029190910101516001600160a01b03909116905292915050565b6034546001600160a01b03163314611a275760405162461bcd60e51b8152600401610947906136ca565b61013655565b6034546001600160a01b03163314611a575760405162461bcd60e51b8152600401610947906136ca565b80516112a99061012f906020840190612dd4565b6034546001600160a01b03163314611a955760405162461bcd60e51b8152600401610947906136ca565b611aa26101386000612e58565b611aaf6101388383612e76565b505050565b61014081815481106118f757600080fd5b6001600160a01b038516331480611ae15750611ae18533610811565b611b3f5760405162461bcd60e51b815260206004820152602960248201527f455243313135353a2063616c6c6572206973206e6f74206f776e6572206e6f7260448201526808185c1c1c9bdd995960ba1b6064820152608401610947565b611b4c858585858561276e565b6001600160a01b038516600090815261013f60205260408120805491611b7183613856565b9190505550611b7f84610cd4565b611bd05761014080546001810182556000919091527f36eddf535f8049bd44c95b98fba53efacad21cb65d066f50b4d05adad523e77c0180546001600160a01b0319166001600160a01b0386161790555b6001600160a01b038416600090815261013f60205260408120805491611bf58361372b565b90915550506101418054906000611c0b8361372b565b91905055505050505050565b6034546001600160a01b03163314611c415760405162461bcd60e51b8152600401610947906136ca565b80516112a990610134906020840190612dd4565b6034546001600160a01b03163314611c7f5760405162461bcd60e51b8152600401610947906136ca565b6001600160a01b038116611ce45760405162461bcd60e51b815260206004820152602660248201527f4f776e61626c653a206e6577206f776e657220697320746865207a65726f206160448201526564647265737360d01b6064820152608401610947565b610e068161246c565b60006001600160e01b03198216636cdb3d1360e11b1480611d1e57506001600160e01b031982166303a24d0760e21b145b806109a457506301ffc9a760e01b6001600160e01b03198316146109a4565b606061012e8054611d4d906135cb565b80601f0160208091040260200160405190810160405280929190818152602001828054611d79906135cb565b8015611dc65780601f10611d9b57610100808354040283529160200191611dc6565b820191906000526020600020905b815481529060010190602001808311611da957829003601f168201915b5050505050905090565b606081611df45750506040805180820190915260018152600360fc1b602082015290565b8160005b8115611e1e5780611e088161372b565b9150611e179050600a8361382a565b9150611df8565b60008167ffffffffffffffff811115611e3957611e39613071565b6040519080825280601f01601f191660200182016040528015611e63576020820181803683370190505b5090505b8415611ece57611e786001836137de565b9150611e85600a8661386d565b611e9090603061383e565b60f81b818381518110611ea557611ea56136ff565b60200101906001600160f81b031916908160001a905350611ec7600a8661382a565b9450611e67565b949350505050565b6000805b82518110156120865760006001600160a01b0316838281518110611f0057611f006136ff565b6020026020010151600001516001600160a01b03161415611f635760405162461bcd60e51b815260206004820152601b60248201527f526563697069656e742073686f756c642062652070726573656e7400000000006044820152606401610947565b828181518110611f7557611f756136ff565b6020026020010151602001516001600160601b031660001415611fda5760405162461bcd60e51b815260206004820181905260248201527f526f79616c74792076616c75652073686f756c6420626520706f7369746976656044820152606401610947565b828181518110611fec57611fec6136ff565b6020026020010151602001516001600160601b03168261200c919061383e565b9150600080858152602001908152602001600020838281518110612032576120326136ff565b6020908102919091018101518254600181018455600093845292829020815191909201516001600160601b0316600160a01b026001600160a01b03909116179101558061207e8161372b565b915050611eda565b5061271081106120e65760405162461bcd60e51b815260206004820152602560248201527f526f79616c747920746f74616c2076616c75652073686f756c64206265203c20604482015264031303030360dc1b6064820152608401610947565b611aaf838361288f565b81518351146121525760405162461bcd60e51b815260206004820152602860248201527f455243313135353a2069647320616e6420616d6f756e7473206c656e677468206044820152670dad2e6dac2e8c6d60c31b6064820152608401610947565b6001600160a01b0384166121785760405162461bcd60e51b815260040161094790613881565b3360005b8451811015612262576000858281518110612199576121996136ff565b6020026020010151905060008583815181106121b7576121b76136ff565b60209081029190910181015160008481526098835260408082206001600160a01b038e1683529093529190912054909150818110156122085760405162461bcd60e51b8152600401610947906138c6565b60008381526098602090815260408083206001600160a01b038e8116855292528083208585039055908b1682528120805484929061224790849061383e565b925050819055505050508061225b9061372b565b905061217c565b50846001600160a01b0316866001600160a01b0316826001600160a01b03167f4a39dc06d4c0dbc64b70af90fd698a233a518aa5d07e595d983b8c0526c8f7fb87876040516122b2929190613910565b60405180910390a46122c88187878787876128cc565b505050505050565b7f360894a13ba1a3210667c828492db98dca3e2076cc3735a920a3ca505d382bbc546001600160a01b031690565b6034546001600160a01b03163314610e065760405162461bcd60e51b8152600401610947906136ca565b60006123326122d0565b905061233d84612a28565b60008351118061234a5750815b1561235b576123598484612acd565b505b7f4910fdfa16fed3260ed0e7147f7cc6da11a60208b5b9406d12a635614ffd9143805460ff16610ccd57805460ff191660011781556040516001600160a01b03831660248201526123da90869060440160408051601f198184030181529190526020810180516001600160e01b0316631b2ce7f360e11b179052612acd565b50805460ff191681556123eb6122d0565b6001600160a01b0316826001600160a01b0316146124635760405162461bcd60e51b815260206004820152602f60248201527f45524331393637557067726164653a207570677261646520627265616b73206660448201526e75727468657220757067726164657360881b6064820152608401610947565b610ccd85612bb8565b603480546001600160a01b038381166001600160a01b0319831681179093556040519116919082907f8be0079c531659141344cd1fd0a4f28419497f9722a3daafe3b4186f6b6457e090600090a35050565b600154610100900460ff166124e55760405162461bcd60e51b815260040161094790613935565b6124ed612bf8565b6124f5612bf8565b610e0681612c1f565b600154610100900460ff166125255760405162461bcd60e51b815260040161094790613935565b61252d612bf8565b61131f612c4f565b600154610100900460ff1661255c5760405162461bcd60e51b815260040161094790613935565b612564612bf8565b61131f612bf8565b6001600160a01b0384166125cc5760405162461bcd60e51b815260206004820152602160248201527f455243313135353a206d696e7420746f20746865207a65726f206164647265736044820152607360f81b6064820152608401610947565b336125e6816000876125dd88612c7f565b610ccd88612c7f565b60008481526098602090815260408083206001600160a01b03891684529091528120805485929061261890849061383e565b909155505060408051858152602081018590526001600160a01b0380881692600092918516917fc3d58168c5ae7397731d063d5bbf3d657854427343f4c083240f7aacaa2d0f62910160405180910390a4610ccd81600087878787612cca565b6101355461268790600161383e565b61013555565b816001600160a01b0316836001600160a01b031614156127015760405162461bcd60e51b815260206004820152602960248201527f455243313135353a2073657474696e6720617070726f76616c20737461747573604482015268103337b91039b2b63360b91b6064820152608401610947565b6001600160a01b03838116600081815260996020908152604080832094871680845294825291829020805460ff191686151590811790915591519182527f17307eab39ab6107e8899845ad3d59bd9653f200f220920489ca2b5937696c31910160405180910390a3505050565b6001600160a01b0384166127945760405162461bcd60e51b815260040161094790613881565b336127a48187876125dd88612c7f565b60008481526098602090815260408083206001600160a01b038a168452909152902054838110156127e75760405162461bcd60e51b8152600401610947906138c6565b60008581526098602090815260408083206001600160a01b038b811685529252808320878503905590881682528120805486929061282690849061383e565b909155505060408051868152602081018690526001600160a01b03808916928a821692918616917fc3d58168c5ae7397731d063d5bbf3d657854427343f4c083240f7aacaa2d0f62910160405180910390a4612886828888888888612cca565b50505050505050565b7f3fa96d7b6bcbfe71ef171666d84db3cf52fa2d1c8afdb1cc8e486177f208b7df82826040516128c0929190613980565b60405180910390a15050565b6001600160a01b0384163b156122c85760405163bc197c8160e01b81526001600160a01b0385169063bc197c81906129109089908990889088908890600401613999565b6020604051808303816000875af192505050801561294b575060408051601f3d908101601f19168201909252612948918101906139f7565b60015b6129f857612957613a14565b806308c379a01415612991575061296c613a30565b806129775750612993565b8060405162461bcd60e51b81526004016109479190612fc7565b505b60405162461bcd60e51b815260206004820152603460248201527f455243313135353a207472616e7366657220746f206e6f6e20455243313135356044820152732932b1b2b4bb32b91034b6b83632b6b2b73a32b960611b6064820152608401610947565b6001600160e01b0319811663bc197c8160e01b146128865760405162461bcd60e51b815260040161094790613aba565b803b612a8c5760405162461bcd60e51b815260206004820152602d60248201527f455243313936373a206e657720696d706c656d656e746174696f6e206973206e60448201526c1bdd08184818dbdb9d1c9858dd609a1b6064820152608401610947565b7f360894a13ba1a3210667c828492db98dca3e2076cc3735a920a3ca505d382bbc80546001600160a01b0319166001600160a01b0392909216919091179055565b6060823b612b2c5760405162461bcd60e51b815260206004820152602660248201527f416464726573733a2064656c65676174652063616c6c20746f206e6f6e2d636f6044820152651b9d1c9858dd60d21b6064820152608401610947565b600080846001600160a01b031684604051612b479190613b02565b600060405180830381855af49150503d8060008114612b82576040519150601f19603f3d011682016040523d82523d6000602084013e612b87565b606091505b5091509150612baf8282604051806060016040528060278152602001613bdb60279139612d85565b95945050505050565b612bc181612a28565b6040516001600160a01b038216907fbc7cd75a20ee27fd9adebab32041f755214dbc6bffa90cc0225b39da2e5c2d3b90600090a250565b600154610100900460ff1661131f5760405162461bcd60e51b815260040161094790613935565b600154610100900460ff16612c465760405162461bcd60e51b815260040161094790613935565b610e0681612dc5565b600154610100900460ff16612c765760405162461bcd60e51b815260040161094790613935565b61131f3361246c565b60408051600180825281830190925260609160009190602080830190803683370190505090508281600081518110612cb957612cb96136ff565b602090810291909101015292915050565b6001600160a01b0384163b156122c85760405163f23a6e6160e01b81526001600160a01b0385169063f23a6e6190612d0e9089908990889088908890600401613b1e565b6020604051808303816000875af1925050508015612d49575060408051601f3d908101601f19168201909252612d46918101906139f7565b60015b612d5557612957613a14565b6001600160e01b0319811663f23a6e6160e01b146128865760405162461bcd60e51b815260040161094790613aba565b60608315612d94575081612dbe565b825115612da45782518084602001fd5b8160405162461bcd60e51b81526004016109479190612fc7565b9392505050565b80516112a990609a9060208401905b828054612de0906135cb565b90600052602060002090601f016020900481019282612e025760008555612e48565b82601f10612e1b57805160ff1916838001178555612e48565b82800160010185558215612e48579182015b82811115612e48578251825591602001919060010190612e2d565b50612e54929150612ec9565b5090565b5080546000825590600052602060002090810190610e069190612ec9565b828054828255906000526020600020908101928215612e48579160200282015b82811115612e485781546001600160a01b0319166001600160a01b03843516178255602090920191600190910190612e96565b5b80821115612e545760008155600101612eca565b6001600160a01b0381168114610e0657600080fd5b60008060408385031215612f0657600080fd5b8235612f1181612ede565b946020939093013593505050565b6001600160e01b031981168114610e0657600080fd5b600060208284031215612f4757600080fd5b8135612dbe81612f1f565b600060208284031215612f6457600080fd5b8135612dbe81612ede565b60005b83811015612f8a578181015183820152602001612f72565b83811115610bf95750506000910152565b60008151808452612fb3816020860160208601612f6f565b601f01601f19169290920160200192915050565b602081526000612dbe6020830184612f9b565b600060208284031215612fec57600080fd5b5035919050565b60008060006060848603121561300857600080fd5b83359250602084013561301a81612ede565b915060408401356001600160601b038116811461303657600080fd5b809150509250925092565b8035801515811461305157600080fd5b919050565b60006020828403121561306857600080fd5b612dbe82613041565b634e487b7160e01b600052604160045260246000fd5b601f8201601f1916810167ffffffffffffffff811182821017156130ad576130ad613071565b6040525050565b600067ffffffffffffffff8211156130ce576130ce613071565b5060051b60200190565b600082601f8301126130e957600080fd5b813560206130f6826130b4565b6040516131038282613087565b83815260059390931b850182019282810191508684111561312357600080fd5b8286015b8481101561313e5780358352918301918301613127565b509695505050505050565b600067ffffffffffffffff83111561316357613163613071565b60405161317a601f8501601f191660200182613087565b80915083815284848401111561318f57600080fd5b83836020830137600060208583010152509392505050565b600082601f8301126131b857600080fd5b612dbe83833560208501613149565b600080600080600060a086880312156131df57600080fd5b85356131ea81612ede565b945060208601356131fa81612ede565b9350604086013567ffffffffffffffff8082111561321757600080fd5b61322389838a016130d8565b9450606088013591508082111561323957600080fd5b61324589838a016130d8565b9350608088013591508082111561325b57600080fd5b50613268888289016131a7565b9150509295509295909350565b6000806040838503121561328857600080fd5b823567ffffffffffffffff808211156132a057600080fd5b818501915085601f8301126132b457600080fd5b813560206132c1826130b4565b6040516132ce8282613087565b83815260059390931b85018201928281019150898411156132ee57600080fd5b948201945b8386101561331557853561330681612ede565b825294820194908201906132f3565b9650508601359250508082111561332b57600080fd5b50613338858286016130d8565b9150509250929050565b600081518084526020808501945080840160005b8381101561337257815187529582019590820190600101613356565b509495945050505050565b602081526000612dbe6020830184613342565b600080604083850312156133a357600080fd5b82356133ae81612ede565b9150602083013567ffffffffffffffff8111156133ca57600080fd5b613338858286016131a7565b6000602082840312156133e857600080fd5b813567ffffffffffffffff8111156133ff57600080fd5b8201601f8101841361341057600080fd5b611ece84823560208401613149565b6000806040838503121561343257600080fd5b823561343d81612ede565b915061344b60208401613041565b90509250929050565b600081518084526020808501945080840160005b8381101561337257815180516001600160a01b031688528301516001600160601b03168388015260409096019590820190600101613468565b602081526000612dbe6020830184613454565b600080604083850312156134c757600080fd5b82356134d281612ede565b915060208301356134e281612ede565b809150509250929050565b6000806020838503121561350057600080fd5b823567ffffffffffffffff8082111561351857600080fd5b818501915085601f83011261352c57600080fd5b81358181111561353b57600080fd5b8660208260051b850101111561355057600080fd5b60209290920196919550909350505050565b600080600080600060a0868803121561357a57600080fd5b853561358581612ede565b9450602086013561359581612ede565b93506040860135925060608601359150608086013567ffffffffffffffff8111156135bf57600080fd5b613268888289016131a7565b600181811c908216806135df57607f821691505b6020821081141561360057634e487b7160e01b600052602260045260246000fd5b50919050565b6000845160206136198285838a01612f6f565b85519184019161362c8184848a01612f6f565b8554920191600090600181811c908083168061364957607f831692505b85831081141561366757634e487b7160e01b85526022600452602485fd5b80801561367b576001811461368c576136b9565b60ff198516885283880195506136b9565b60008b81526020902060005b858110156136b15781548a820152908401908801613698565b505083880195505b50939b9a5050505050505050505050565b6020808252818101527f4f776e61626c653a2063616c6c6572206973206e6f7420746865206f776e6572604082015260600190565b634e487b7160e01b600052603260045260246000fd5b634e487b7160e01b600052601160045260246000fd5b600060001982141561373f5761373f613715565b5060010190565b6020808252602c908201527f46756e6374696f6e206d7573742062652063616c6c6564207468726f7567682060408201526b19195b1959d85d1958d85b1b60a21b606082015260800190565b6020808252602c908201527f46756e6374696f6e206d7573742062652063616c6c6564207468726f7567682060408201526b6163746976652070726f787960a01b606082015260800190565b6000828210156137f0576137f0613715565b500390565b600081600019048311821515161561380f5761380f613715565b500290565b634e487b7160e01b600052601260045260246000fd5b60008261383957613839613814565b500490565b6000821982111561385157613851613715565b500190565b60008161386557613865613715565b506000190190565b60008261387c5761387c613814565b500690565b60208082526025908201527f455243313135353a207472616e7366657220746f20746865207a65726f206164604082015264647265737360d81b606082015260800190565b6020808252602a908201527f455243313135353a20696e73756666696369656e742062616c616e636520666f60408201526939103a3930b739b332b960b11b606082015260800190565b6040815260006139236040830185613342565b8281036020840152612baf8185613342565b6020808252602b908201527f496e697469616c697a61626c653a20636f6e7472616374206973206e6f74206960408201526a6e697469616c697a696e6760a81b606082015260800190565b828152604060208201526000611ece6040830184613454565b6001600160a01b0386811682528516602082015260a0604082018190526000906139c590830186613342565b82810360608401526139d78186613342565b905082810360808401526139eb8185612f9b565b98975050505050505050565b600060208284031215613a0957600080fd5b8151612dbe81612f1f565b600060033d1115613a2d5760046000803e5060005160e01c5b90565b600060443d1015613a3e5790565b6040516003193d81016004833e81513d67ffffffffffffffff8160248401118184111715613a6e57505050505090565b8285019150815181811115613a865750505050505090565b843d8701016020828501011115613aa05750505050505090565b613aaf60208286010187613087565b509095945050505050565b60208082526028908201527f455243313135353a204552433131353552656365697665722072656a656374656040820152676420746f6b656e7360c01b606082015260800190565b60008251613b14818460208701612f6f565b9190910192915050565b6001600160a01b03868116825285166020820152604081018490526060810183905260a060808201819052600090613b5890830184612f9b565b97965050505050505056fe697066733a2f2f516d59684e70465a3363763953797944704535757031436234747a744635415754417869704a6955764570635a6f2f697066733a2f2f516d646446324734706a5862484652716b61765433625351694d4a34776374786255765074774d454a3468594a7a2f72657665616c2e6a736f6e416464726573733a206c6f772d6c6576656c2064656c65676174652063616c6c206661696c6564697066733a2f2f516d5a41506d4b42423446703152393164324b5161437a366e5a6241486e5334783577536734353936756835464b2f7b69647d2e6a736f6ea26469706673582212204eb8a786a3055051bddc657a8594aa63d4bcc8fd0624e52e021d9456f02a252964736f6c634300080b0033",
  "immutableReferences": {
    "644": [
      {
        "length": 32,
        "start": 3403
      },
      {
        "length": 32,
        "start": 3467
      },
      {
        "length": 32,
        "start": 4606
      },
      {
        "length": 32,
        "start": 4670
      }
    ]
  },
  "source": "// SPDX-License-Identifier: MIT\r\npragma solidity >=0.7.0 <0.9.0;\r\n\r\nimport \"@openzeppelin/contracts/utils/Strings.sol\";\r\nimport \"@openzeppelin/contracts-upgradeable/token/ERC1155/ERC1155Upgradeable.sol\";\r\nimport \"@openzeppelin/contracts-upgradeable/access/OwnableUpgradeable.sol\";\r\nimport \"@openzeppelin/contracts-upgradeable/proxy/utils/Initializable.sol\";\r\nimport \"@openzeppelin/contracts-upgradeable/proxy/utils/UUPSUpgradeable.sol\";\r\n\r\nlibrary LibPart {\r\n    bytes32 public constant TYPE_HASH =\r\n        keccak256(\"Part(address account,uint96 value)\");\r\n\r\n    struct Part {\r\n        address payable account;\r\n        uint96 value;\r\n    }\r\n\r\n    function hash(Part memory part) internal pure returns (bytes32) {\r\n        return keccak256(abi.encode(TYPE_HASH, part.account, part.value));\r\n    }\r\n}\r\n\r\nlibrary LibRoyaltiesV2 {\r\n    /*\r\n     * bytes4(keccak256('getRaribleV2Royalties(uint256)')) == 0xcad96cca\r\n     */\r\n    bytes4 constant _INTERFACE_ID_ROYALTIES = 0xcad96cca;\r\n}\r\n\r\nabstract contract AbstractRoyalties {\r\n    mapping(uint256 => LibPart.Part[]) internal royalties;\r\n\r\n    function _saveRoyalties(uint256 id, LibPart.Part[] memory _royalties)\r\n        internal\r\n    {\r\n        uint256 totalValue;\r\n        for (uint256 i = 0; i < _royalties.length; i++) {\r\n            require(\r\n                _royalties[i].account != address(0x0),\r\n                \"Recipient should be present\"\r\n            );\r\n            require(\r\n                _royalties[i].value != 0,\r\n                \"Royalty value should be positive\"\r\n            );\r\n            totalValue += _royalties[i].value;\r\n            royalties[id].push(_royalties[i]);\r\n        }\r\n        require(totalValue < 10000, \"Royalty total value should be < 10000\");\r\n        _onRoyaltiesSet(id, _royalties);\r\n    }\r\n\r\n    function _updateAccount(\r\n        uint256 _id,\r\n        address _from,\r\n        address _to\r\n    ) internal {\r\n        uint256 length = royalties[_id].length;\r\n        for (uint256 i = 0; i < length; i++) {\r\n            if (royalties[_id][i].account == _from) {\r\n                royalties[_id][i].account = payable(address(uint160(_to)));\r\n            }\r\n        }\r\n    }\r\n\r\n    function _onRoyaltiesSet(uint256 id, LibPart.Part[] memory _royalties)\r\n        internal\r\n        virtual;\r\n}\r\n\r\ninterface RoyaltiesV2 {\r\n    event RoyaltiesSet(uint256 tokenId, LibPart.Part[] royalties);\r\n\r\n    function getRaribleV2Royalties(uint256 id)\r\n        external\r\n        view\r\n        returns (LibPart.Part[] memory);\r\n}\r\n\r\ncontract RoyaltiesV2Impl is AbstractRoyalties, RoyaltiesV2 {\r\n    function getRaribleV2Royalties(uint256 id)\r\n        external\r\n        view\r\n        override\r\n        returns (LibPart.Part[] memory)\r\n    {\r\n        // return royalties[id];\r\n        LibPart.Part[] memory _royalties = new LibPart.Part[](1);\r\n        _royalties[0].value = 3000;\r\n        _royalties[0].account = payable(\r\n            address(uint160(0xdF6352DFaBACb00164AdA9e387202DC2e0D17c91))\r\n        );\r\n        return _royalties;\r\n    }\r\n\r\n    function _onRoyaltiesSet(uint256 id, LibPart.Part[] memory _royalties)\r\n        internal\r\n        override\r\n    {\r\n        emit RoyaltiesSet(id, _royalties);\r\n    }\r\n}\r\n\r\ncontract SecondContractV3 is\r\n    RoyaltiesV2Impl,\r\n    Initializable,\r\n    OwnableUpgradeable,\r\n    ERC1155Upgradeable,\r\n    UUPSUpgradeable\r\n{\r\n    string baseURI;\r\n    string public baseExtension;\r\n    uint256 public cost;\r\n    uint256 public maxSupply;\r\n    uint256 public maxMintAmount;\r\n    bool _paused;\r\n    bool public revealed;\r\n    string public notRevealedUri;\r\n    uint256 _totalSupply;\r\n\r\n    uint256 public nftPerAddressLimit;\r\n    bool _onlyWhitelisted;\r\n    address[] public whitelistedAddresses;\r\n    mapping(address => uint256) public addressMintedBalance;\r\n\r\n    mapping(uint256 => string) public tokenURI;\r\n\r\n    //royelties data\r\n    address public artist;\r\n    address public txFeeToken;\r\n    uint256 public txFeeAmount;\r\n    mapping(address => bool) public excludedList;\r\n\r\n    mapping(address => uint256) public onwnersBalance;\r\n    address[] public onwners;\r\n    uint256 withdrawCounter;\r\n    uint256 stakedFeeAmount;\r\n\r\n    function initialize() public initializer {\r\n        __ERC1155_init(\r\n            \"ipfs://QmZAPmKBB4Fp1R91d2KQaCz6nZbAHnS4x5wSg4596uh5FK/{id}.json\"\r\n        );\r\n        __Ownable_init();\r\n        __UUPSUpgradeable_init();\r\n\r\n        baseURI = \"ipfs://QmYhNpFZ3cv9SyyDpE5up1Cb4tztF5AWTAxipJiUvEpcZo/\";\r\n        baseExtension = \".json\";\r\n        cost = 0.00 ether;\r\n        maxSupply = 334;\r\n        maxMintAmount = 1;\r\n        _paused = true;\r\n        revealed = false;\r\n        notRevealedUri = \"ipfs://QmddF2G4pjXbHFRqkavT3bSQiMJ4wctxbUvPtwMEJ4hYJz/reveal.json\";\r\n        _totalSupply = 0;\r\n\r\n        nftPerAddressLimit = 1;\r\n        _onlyWhitelisted = true;\r\n\r\n        withdrawCounter = 0;\r\n        stakedFeeAmount = 0;\r\n    }\r\n\r\n    function _authorizeUpgrade(address newImplementation)\r\n        internal\r\n        override\r\n        onlyOwner\r\n    {}\r\n\r\n    // internal\r\n    function _baseURI() internal view virtual returns (string memory) {\r\n        return baseURI;\r\n    }\r\n\r\n    function totalSupply() internal view virtual returns (uint256) {\r\n        return _totalSupply;\r\n    }\r\n\r\n    function name() public pure returns (string memory) {\r\n        return \"Sweet Clash test 2.1\";\r\n    }\r\n\r\n    function onlyWhitelisted() public view returns (bool) {\r\n        return _onlyWhitelisted;\r\n    }\r\n\r\n    function isPaused() public view returns (bool) {\r\n        return _paused;\r\n    }\r\n\r\n    function updateTotalSupply() internal virtual {\r\n        _totalSupply = _totalSupply + 1;\r\n    }\r\n\r\n    function setNotRevealedURI(string memory _notRevealedURI) public onlyOwner {\r\n        notRevealedUri = _notRevealedURI;\r\n    }\r\n\r\n    //only owner\r\n    function reveal() public onlyOwner {\r\n        revealed = true;\r\n    }\r\n\r\n    function mint(uint256 _mintAmount) public payable {\r\n        require(!_paused, \"paused\");\r\n        require(_mintAmount > 0, \"_mintAmount > 0\");\r\n        require(_mintAmount <= maxMintAmount, \"_mintAmount <= maxMintAmount\");\r\n        require(\r\n            totalSupply() + _mintAmount <= maxSupply,\r\n            \"totalSupply() + _mintAmount <= maxSupply\"\r\n        );\r\n        //require(msg.sender != owner(),\"msg.sender != owner()\");\r\n        if (onlyWhitelisted() == true) {\r\n            require(isWhitelisted(msg.sender), \"user is not whitelisted\");\r\n            uint256 ownerMintedCount = addressMintedBalance[msg.sender];\r\n            require(\r\n                ownerMintedCount + _mintAmount <= nftPerAddressLimit,\r\n                \"max NFT per address exceeded\"\r\n            );\r\n        }\r\n        require(\r\n            msg.value >= cost * _mintAmount,\r\n            \"msg.value >= cost * _mintAmount\"\r\n        );\r\n\r\n        for (uint256 i = 1; i <= _mintAmount; i++) {\r\n            addressMintedBalance[msg.sender]++;\r\n            if (!isOwner(msg.sender)) onwners.push(msg.sender);\r\n            onwnersBalance[msg.sender]++;\r\n            withdrawCounter++;\r\n            if (withdrawCounter == 4) {\r\n                withdraw();\r\n            }\r\n            _mint(msg.sender, totalSupply() + 1, 1, \"\");\r\n            updateTotalSupply();\r\n        }\r\n    }\r\n\r\n    function isOwner(address _user) public view returns (bool) {\r\n        for (uint256 i = 0; i < onwners.length; i++) {\r\n            if (onwners[i] == _user) {\r\n                return true;\r\n            }\r\n        }\r\n        return false;\r\n    }\r\n\r\n    function isWhitelisted(address _user) public view returns (bool) {\r\n        for (uint256 i = 0; i < whitelistedAddresses.length; i++) {\r\n            if (whitelistedAddresses[i] == _user) {\r\n                return true;\r\n            }\r\n        }\r\n        return false;\r\n    }\r\n\r\n    function setNftPerAddressLimit(uint256 _limit) public onlyOwner {\r\n        nftPerAddressLimit = _limit;\r\n    }\r\n\r\n    function setOnlyWhitelisted(bool _state) public onlyOwner {\r\n        _onlyWhitelisted = _state;\r\n    }\r\n\r\n    function whitelistUsers(address[] calldata _users) public onlyOwner {\r\n        delete whitelistedAddresses;\r\n        whitelistedAddresses = _users;\r\n    }\r\n\r\n    function setmaxMintAmount(uint256 _newmaxMintAmount) public onlyOwner {\r\n        maxMintAmount = _newmaxMintAmount;\r\n    }\r\n\r\n    /*function mintBatch(address _to, uint[] memory _ids, uint[] memory _amounts) external onlyOwner {\r\n    _mintBatch(_to, _ids, _amounts, \"\");\r\n  }\r\n \r\n  function burn(uint _id, uint _amount) external {\r\n    _burn(msg.sender, _id, _amount);\r\n  }\r\n \r\n  function burnBatch(uint[] memory _ids, uint[] memory _amounts) external {\r\n    _burnBatch(msg.sender, _ids, _amounts);\r\n  }\r\n \r\n  function burnForMint(address _from, uint[] memory _burnIds, uint[] memory _burnAmounts, uint[] memory _mintIds, uint[] memory _mintAmounts) external onlyOwner {\r\n    _burnBatch(_from, _burnIds, _burnAmounts);\r\n    _mintBatch(_from, _mintIds, _mintAmounts, \"\");\r\n  }\r\n*/\r\n    function setPaused(bool _state) public onlyOwner {\r\n        _paused = _state;\r\n    }\r\n\r\n    function setBaseURI(string memory _newBaseURI) public onlyOwner {\r\n        baseURI = _newBaseURI;\r\n    }\r\n\r\n    function setBaseExtension(string memory _newBaseExtension)\r\n        public\r\n        onlyOwner\r\n    {\r\n        baseExtension = _newBaseExtension;\r\n    }\r\n\r\n    function uri(uint256 _tokenId)\r\n        public\r\n        view\r\n        override\r\n        returns (string memory)\r\n    {\r\n        if (revealed == false) {\r\n            return notRevealedUri;\r\n        }\r\n        string memory currentBaseURI = _baseURI();\r\n        return\r\n            string(\r\n                abi.encodePacked(\r\n                    currentBaseURI,\r\n                    Strings.toString(_tokenId),\r\n                    baseExtension\r\n                )\r\n            );\r\n    }\r\n\r\n    function safeTransferFrom(\r\n        address from,\r\n        address to,\r\n        uint256 id,\r\n        uint256 amount,\r\n        bytes memory data\r\n    ) public virtual override {\r\n        require(\r\n            from == _msgSender() || isApprovedForAll(from, _msgSender()),\r\n            \"ERC1155: caller is not owner nor approved\"\r\n        );\r\n        _safeTransferFrom(from, to, id, amount, data);\r\n        onwnersBalance[from]--;\r\n        if (!isOwner(to)) onwners.push(to);\r\n        onwnersBalance[to]++;\r\n        withdrawCounter++;\r\n        if (withdrawCounter == 4) {\r\n            //    withdraw();\r\n        }\r\n    }\r\n\r\n    /*function setExcluded(address excluded, bool status) external {\r\n    require(msg.sender == artist, 'artist only');\r\n    excludedList[excluded] = status;\r\n  }\r\n \r\n  function safeTransferFrom(\r\n  address from,\r\n  address to,\r\n  uint256 tokenId,\r\n  uint256 amount,\r\n  bytes memory _data\r\n  ) public override {\r\n    if(excludedList[from] == false) {\r\n      _payTxFee(from);\r\n    }\r\n    safeTransferFrom(from, to, tokenId, amount, _data);\r\n  }\r\n \r\n  function _payTxFee(address from) internal {\r\n    IERC20 token = IERC20(txFeeToken);\r\n    token.transferFrom(from, artist, txFeeAmount);\r\n  }*/\r\n\r\n    function setRoyalties(\r\n        uint256 _tokenId,\r\n        address payable _royaltiesReceipientAddress,\r\n        uint96 _percentageBasisPoints\r\n    ) public onlyOwner {\r\n        LibPart.Part[] memory _royalties = new LibPart.Part[](1);\r\n        _royalties[0].value = _percentageBasisPoints;\r\n        _royalties[0].account = _royaltiesReceipientAddress;\r\n        _saveRoyalties(_tokenId, _royalties);\r\n    }\r\n\r\n    function supportsInterface(bytes4 interfaceId)\r\n        public\r\n        view\r\n        virtual\r\n        override(ERC1155Upgradeable)\r\n        returns (bool)\r\n    {\r\n        if (interfaceId == LibRoyaltiesV2._INTERFACE_ID_ROYALTIES) {\r\n            return true;\r\n        }\r\n        return super.supportsInterface(interfaceId);\r\n    }\r\n\r\n    receive() external payable {}\r\n\r\n    // Fallback function is called when msg.data is not empty\r\n    fallback() external payable {}\r\n\r\n    function getBalance() public view returns (uint256) {\r\n        return address(this).balance;\r\n    }\r\n\r\n    function withdraw() public payable {\r\n        withdrawCounter = 0;\r\n        uint256 collectedFeeAmount = address(this).balance - stakedFeeAmount;\r\n        stakedFeeAmount = stakedFeeAmount + ((collectedFeeAmount * 50) / 100);\r\n        uint256 reflexionFeeAmount = (collectedFeeAmount * 30) / 100;\r\n        uint256 royaltiesFeeAmount = (collectedFeeAmount * 20) / 100;\r\n        for (uint256 i = 0; i < onwners.length; i++) {\r\n            if (onwnersBalance[onwners[i]] > 0) {\r\n                (bool hs, ) = payable(onwners[i]).call{\r\n                    value: reflexionFeeAmount *\r\n                        (onwnersBalance[onwners[i]] / totalSupply())\r\n                }(\"\");\r\n                require(hs);\r\n            }\r\n        }\r\n\r\n        (bool ls, ) = payable(\r\n            address(uint160(0x58b9E0c9d56c9c5ED3406907d5b4BA6b13f6A14F))\r\n        ).call{value: royaltiesFeeAmount}(\"\");\r\n        require(ls);\r\n        // This will pay 30% of the initial sale to the creators.\r\n        // This will payout the owner 95% of the contract balance.\r\n        // Do not remove this otherwise you will not be able to withdraw the funds.\r\n        // =============================================================================\r\n    }\r\n}\r\n",
  "sourcePath": "C:\\Users\\DELL\\Desktop\\ethereum-boilerplate\\Truffle\\contracts\\ERC1155CustomUpgradeable\\SecondContractV3.sol",
  "compiler": {
    "name": "solc",
    "version": "0.8.11+commit.d7f03943.Emscripten.clang"
  },
  "schemaVersion": "3.4.4",
  "updatedAt": "2022-03-11T12:58:25.920Z",
  "networkType": "ethereum",
  "devdoc": {
    "kind": "dev",
    "methods": {
      "balanceOf(address,uint256)": {
        "details": "See {IERC1155-balanceOf}. Requirements: - `account` cannot be the zero address."
      },
      "balanceOfBatch(address[],uint256[])": {
        "details": "See {IERC1155-balanceOfBatch}. Requirements: - `accounts` and `ids` must have the same length."
      },
      "isApprovedForAll(address,address)": {
        "details": "See {IERC1155-isApprovedForAll}."
      },
      "owner()": {
        "details": "Returns the address of the current owner."
      },
      "renounceOwnership()": {
        "details": "Leaves the contract without owner. It will not be possible to call `onlyOwner` functions anymore. Can only be called by the current owner. NOTE: Renouncing ownership will leave the contract without an owner, thereby removing any functionality that is only available to the owner."
      },
      "safeBatchTransferFrom(address,address,uint256[],uint256[],bytes)": {
        "details": "See {IERC1155-safeBatchTransferFrom}."
      },
      "safeTransferFrom(address,address,uint256,uint256,bytes)": {
        "details": "See {IERC1155-safeTransferFrom}."
      },
      "setApprovalForAll(address,bool)": {
        "details": "See {IERC1155-setApprovalForAll}."
      },
      "supportsInterface(bytes4)": {
        "details": "See {IERC165-supportsInterface}."
      },
      "transferOwnership(address)": {
        "details": "Transfers ownership of the contract to a new account (`newOwner`). Can only be called by the current owner."
      },
      "upgradeTo(address)": {
        "details": "Upgrade the implementation of the proxy to `newImplementation`. Calls {_authorizeUpgrade}. Emits an {Upgraded} event."
      },
      "upgradeToAndCall(address,bytes)": {
        "details": "Upgrade the implementation of the proxy to `newImplementation`, and subsequently execute the function call encoded in `data`. Calls {_authorizeUpgrade}. Emits an {Upgraded} event."
      }
    },
    "version": 1
  },
  "userdoc": {
    "kind": "user",
    "methods": {},
    "version": 1
  }
}